{
  "contractName": "Curve",
  "abi": [
    {
      "inputs": [
        {
          "internalType": "address",
          "name": "_tokenA",
          "type": "address"
        },
        {
          "internalType": "address",
          "name": "_tokenB",
          "type": "address"
        },
        {
          "internalType": "address",
          "name": "_tokenLP",
          "type": "address"
        },
        {
          "internalType": "uint256",
          "name": "_A",
          "type": "uint256"
        }
      ],
      "stateMutability": "nonpayable",
      "type": "constructor"
    },
    {
      "anonymous": false,
      "inputs": [
        {
          "indexed": true,
          "internalType": "address",
          "name": "sender",
          "type": "address"
        },
        {
          "indexed": false,
          "internalType": "uint256",
          "name": "amount0",
          "type": "uint256"
        },
        {
          "indexed": false,
          "internalType": "uint256",
          "name": "amount1",
          "type": "uint256"
        }
      ],
      "name": "AddLiquidity",
      "type": "event"
    },
    {
      "anonymous": false,
      "inputs": [
        {
          "indexed": true,
          "internalType": "address",
          "name": "sender",
          "type": "address"
        },
        {
          "indexed": false,
          "internalType": "uint256",
          "name": "amount0",
          "type": "uint256"
        },
        {
          "indexed": false,
          "internalType": "uint256",
          "name": "amount1",
          "type": "uint256"
        },
        {
          "indexed": true,
          "internalType": "address",
          "name": "recipient",
          "type": "address"
        }
      ],
      "name": "RemoveLiquidity",
      "type": "event"
    },
    {
      "anonymous": false,
      "inputs": [
        {
          "indexed": false,
          "internalType": "uint256",
          "name": "reserve0",
          "type": "uint256"
        },
        {
          "indexed": false,
          "internalType": "uint256",
          "name": "reserve1",
          "type": "uint256"
        }
      ],
      "name": "Sync",
      "type": "event"
    },
    {
      "anonymous": false,
      "inputs": [
        {
          "indexed": true,
          "internalType": "address",
          "name": "sender",
          "type": "address"
        },
        {
          "indexed": false,
          "internalType": "uint256",
          "name": "sold_id",
          "type": "uint256"
        },
        {
          "indexed": false,
          "internalType": "uint256",
          "name": "amountIn",
          "type": "uint256"
        },
        {
          "indexed": false,
          "internalType": "uint256",
          "name": "bought_id",
          "type": "uint256"
        },
        {
          "indexed": false,
          "internalType": "uint256",
          "name": "amountOut",
          "type": "uint256"
        },
        {
          "indexed": false,
          "internalType": "address",
          "name": "recipient",
          "type": "address"
        }
      ],
      "name": "TokenExchange",
      "type": "event"
    },
    {
      "inputs": [],
      "name": "MINIMUM_LIQUIDITY",
      "outputs": [
        {
          "internalType": "uint256",
          "name": "",
          "type": "uint256"
        }
      ],
      "stateMutability": "view",
      "type": "function"
    },
    {
      "inputs": [
        {
          "internalType": "uint256",
          "name": "_reserve0",
          "type": "uint256"
        },
        {
          "internalType": "uint256",
          "name": "_reserve1",
          "type": "uint256"
        }
      ],
      "name": "_xp_mem",
      "outputs": [
        {
          "internalType": "uint256[]",
          "name": "result",
          "type": "uint256[]"
        }
      ],
      "stateMutability": "view",
      "type": "function"
    },
    {
      "inputs": [],
      "name": "getReserves",
      "outputs": [
        {
          "internalType": "uint256",
          "name": "_reserve0",
          "type": "uint256"
        },
        {
          "internalType": "uint256",
          "name": "_reserve1",
          "type": "uint256"
        }
      ],
      "stateMutability": "view",
      "type": "function"
    },
    {
      "inputs": [
        {
          "internalType": "address",
          "name": "to",
          "type": "address"
        }
      ],
      "name": "addLiquidity",
      "outputs": [
        {
          "internalType": "uint256",
          "name": "mint_amount",
          "type": "uint256"
        }
      ],
      "stateMutability": "nonpayable",
      "type": "function"
    },
    {
      "inputs": [
        {
          "internalType": "address",
          "name": "to",
          "type": "address"
        }
      ],
      "name": "removeLiquidity",
      "outputs": [
        {
          "internalType": "uint256",
          "name": "amount0",
          "type": "uint256"
        },
        {
          "internalType": "uint256",
          "name": "amount1",
          "type": "uint256"
        }
      ],
      "stateMutability": "nonpayable",
      "type": "function"
    },
    {
      "inputs": [
        {
          "internalType": "uint256",
          "name": "i",
          "type": "uint256"
        },
        {
          "internalType": "uint256",
          "name": "j",
          "type": "uint256"
        },
        {
          "internalType": "uint256",
          "name": "x",
          "type": "uint256"
        },
        {
          "internalType": "uint256[]",
          "name": "_xp",
          "type": "uint256[]"
        }
      ],
      "name": "_get_y",
      "outputs": [
        {
          "internalType": "uint256",
          "name": "",
          "type": "uint256"
        }
      ],
      "stateMutability": "view",
      "type": "function"
    },
    {
      "inputs": [
        {
          "internalType": "uint256",
          "name": "i",
          "type": "uint256"
        },
        {
          "internalType": "uint256",
          "name": "j",
          "type": "uint256"
        },
        {
          "internalType": "uint256",
          "name": "_dx",
          "type": "uint256"
        },
        {
          "internalType": "uint256",
          "name": "_min_dy",
          "type": "uint256"
        },
        {
          "internalType": "address",
          "name": "to",
          "type": "address"
        }
      ],
      "name": "exchange",
      "outputs": [
        {
          "internalType": "uint256",
          "name": "",
          "type": "uint256"
        }
      ],
      "stateMutability": "nonpayable",
      "type": "function"
    }
  ],
  "bytecode": "0x60806040526127106000556127106002553480156200001d57600080fd5b5060405162002e4038038062002e408339818101604052810190620000439190620001bc565b83600360006101000a81548173ffffffffffffffffffffffffffffffffffffffff021916908373ffffffffffffffffffffffffffffffffffffffff16021790555082600460006101000a81548173ffffffffffffffffffffffffffffffffffffffff021916908373ffffffffffffffffffffffffffffffffffffffff16021790555081600560006101000a81548173ffffffffffffffffffffffffffffffffffffffff021916908373ffffffffffffffffffffffffffffffffffffffff16021790555080600181905550505050506200022e565b600080fd5b600073ffffffffffffffffffffffffffffffffffffffff82169050919050565b600062000149826200011c565b9050919050565b6200015b816200013c565b81146200016757600080fd5b50565b6000815190506200017b8162000150565b92915050565b6000819050919050565b620001968162000181565b8114620001a257600080fd5b50565b600081519050620001b6816200018b565b92915050565b60008060008060808587031215620001d957620001d862000117565b5b6000620001e9878288016200016a565b9450506020620001fc878288016200016a565b93505060406200020f878288016200016a565b92505060606200022287828801620001a5565b91505092959194509250565b612c02806200023e6000396000f3fe608060405234801561001057600080fd5b506004361061007d5760003560e01c8063ba9a7a561161005b578063ba9a7a5614610101578063d56ef1291461011f578063d798f86e1461014f578063e3412e3d146101805761007d565b80630261ac61146100825780630902f1ac146100b2578063a64833a0146100d1575b600080fd5b61009c60048036038101906100979190611f48565b6101b0565b6040516100a99190612046565b60405180910390f35b6100ba61027a565b6040516100c8929190612077565b60405180910390f35b6100eb60048036038101906100e691906120fe565b61028b565b6040516100f89190612179565b60405180910390f35b6101096109d5565b6040516101169190612179565b60405180910390f35b610139600480360381019061013491906122ed565b6109db565b6040516101469190612179565b60405180910390f35b61016960048036038101906101649190612370565b610c8b565b604051610177929190612077565b60405180910390f35b61019a60048036038101906101959190612370565b611319565b6040516101a79190612179565b60405180910390f35b6060600267ffffffffffffffff8111156101cd576101cc6121aa565b5b6040519080825280602002602001820160405280156101fb5781602001602082028036833780820191505090505b5090506002548360005461020f91906123cc565b6102199190612455565b8160008151811061022d5761022c612486565b5b6020026020010181815250506002548260005461024a91906123cc565b6102549190612455565b8160018151811061026857610267612486565b5b60200260200101818152505092915050565b600080600654915060075490509091565b60008084116102cf576040517f08c379a00000000000000000000000000000000000000000000000000000000081526004016102c690612512565b60405180910390fd5b8486141580156102ec5750600085101580156102eb5750600285105b5b80156103055750600086101580156103045750600286105b5b61030e57600080fd5b83600360009054906101000a900473ffffffffffffffffffffffffffffffffffffffff1673ffffffffffffffffffffffffffffffffffffffff1663dd62ed3e33306040518363ffffffff1660e01b815260040161036c929190612541565b602060405180830381865afa158015610389573d6000803e3d6000fd5b505050506040513d601f19601f820116820180604052508101906103ad919061257f565b101580610457575083600460009054906101000a900473ffffffffffffffffffffffffffffffffffffffff1673ffffffffffffffffffffffffffffffffffffffff1663dd62ed3e33306040518363ffffffff1660e01b8152600401610413929190612541565b602060405180830381865afa158015610430573d6000803e3d6000fd5b505050506040513d601f19601f82011682018060405250810190610454919061257f565b10155b610496576040517f08c379a000000000000000000000000000000000000000000000000000000000815260040161048d9061261e565b60405180910390fd5b6000806104a161027a565b91509150848211806104b257508481115b6104f1576040517f08c379a00000000000000000000000000000000000000000000000000000000081526004016104e89061268a565b60405180910390fd5b60006104fd83836101b0565b9050600087828b8151811061051557610514612486565b5b602002602001015161052791906126aa565b905060006105378b8b84866109db565b90506000805460025483868e8151811061055457610553612486565b5b60200260200101516105669190612700565b61057091906123cc565b61057a9190612455565b90508881116105be576040517f08c379a00000000000000000000000000000000000000000000000000000000081526004016105b590612780565b60405180910390fd5b60008c1480156105ce575060018b145b1561071c57600360009054906101000a900473ffffffffffffffffffffffffffffffffffffffff1673ffffffffffffffffffffffffffffffffffffffff166323b872dd33308d6040518463ffffffff1660e01b8152600401610632939291906127a0565b6020604051808303816000875af1158015610651573d6000803e3d6000fd5b505050506040513d601f19601f82011682018060405250810190610675919061280f565b50600460009054906101000a900473ffffffffffffffffffffffffffffffffffffffff1673ffffffffffffffffffffffffffffffffffffffff1663a9059cbb89836040518363ffffffff1660e01b81526004016106d392919061283c565b6020604051808303816000875af11580156106f2573d6000803e3d6000fd5b505050506040513d601f19601f82011682018060405250810190610716919061280f565b50610877565b60018c14801561072c575060008b145b1561087657600460009054906101000a900473ffffffffffffffffffffffffffffffffffffffff1673ffffffffffffffffffffffffffffffffffffffff166323b872dd33308d6040518463ffffffff1660e01b8152600401610790939291906127a0565b6020604051808303816000875af11580156107af573d6000803e3d6000fd5b505050506040513d601f19601f820116820180604052508101906107d3919061280f565b50600360009054906101000a900473ffffffffffffffffffffffffffffffffffffffff1673ffffffffffffffffffffffffffffffffffffffff1663a9059cbb89836040518363ffffffff1660e01b815260040161083192919061283c565b6020604051808303816000875af1158015610850573d6000803e3d6000fd5b505050506040513d601f19601f82011682018060405250810190610874919061280f565b505b5b6000600360009054906101000a900473ffffffffffffffffffffffffffffffffffffffff1673ffffffffffffffffffffffffffffffffffffffff166370a08231306040518263ffffffff1660e01b81526004016108d49190612865565b602060405180830381865afa1580156108f1573d6000803e3d6000fd5b505050506040513d601f19601f82011682018060405250810190610915919061257f565b90506000600460009054906101000a900473ffffffffffffffffffffffffffffffffffffffff1673ffffffffffffffffffffffffffffffffffffffff166370a08231306040518263ffffffff1660e01b81526004016109749190612865565b602060405180830381865afa158015610991573d6000803e3d6000fd5b505050506040513d601f19601f820116820180604052508101906109b5919061257f565b90506109c18282611b3d565b829850505050505050505095945050505050565b6103e881565b600080600154905060006109ef8483611b8c565b90506000610a07600284611e3190919063ffffffff16565b905060008290506000806000805b6002811015610ac0578c811415610a2e578a9250610a5d565b8b8114610a5757898181518110610a4857610a47612486565b5b60200260200101519250610a5c565b610aad565b5b610a708385611e7290919063ffffffff16565b9350610aaa610a89600285611e3190919063ffffffff16565b610a9c8988611e3190919063ffffffff16565b611e9e90919063ffffffff16565b94505b8080610ab890612880565b915050610a15565b50610b0c610ad8600287611e3190919063ffffffff16565b610afe6064610af08a89611e3190919063ffffffff16565b611e3190919063ffffffff16565b611e9e90919063ffffffff16565b93506000610b48610b3987610b2b60648b611e3190919063ffffffff16565b611e9e90919063ffffffff16565b85611e7290919063ffffffff16565b9050600087905060005b60ff811015610c4757819350610bcc610b998a610b8b86610b7d600288611e3190919063ffffffff16565b611e7290919063ffffffff16565b611eb990919063ffffffff16565b610bbe89610bb08687611e3190919063ffffffff16565b611e7290919063ffffffff16565b611e9e90919063ffffffff16565b915083821115610c07576001610beb8584611eb990919063ffffffff16565b11610c0257819a5050505050505050505050610c83565b610c34565b6001610c1c8386611eb990919063ffffffff16565b11610c3357819a5050505050505050505050610c83565b5b8080610c3f90612880565b915050610b52565b506040517f08c379a0000000000000000000000000000000000000000000000000000000008152600401610c7a90612915565b60405180910390fd5b949350505050565b6000806000600360009054906101000a900473ffffffffffffffffffffffffffffffffffffffff1673ffffffffffffffffffffffffffffffffffffffff166370a08231306040518263ffffffff1660e01b8152600401610ceb9190612865565b602060405180830381865afa158015610d08573d6000803e3d6000fd5b505050506040513d601f19601f82011682018060405250810190610d2c919061257f565b90506000600460009054906101000a900473ffffffffffffffffffffffffffffffffffffffff1673ffffffffffffffffffffffffffffffffffffffff166370a08231306040518263ffffffff1660e01b8152600401610d8b9190612865565b602060405180830381865afa158015610da8573d6000803e3d6000fd5b505050506040513d601f19601f82011682018060405250810190610dcc919061257f565b90506000600560009054906101000a900473ffffffffffffffffffffffffffffffffffffffff1673ffffffffffffffffffffffffffffffffffffffff166370a08231336040518263ffffffff1660e01b8152600401610e2b9190612865565b602060405180830381865afa158015610e48573d6000803e3d6000fd5b505050506040513d601f19601f82011682018060405250810190610e6c919061257f565b90506000600560009054906101000a900473ffffffffffffffffffffffffffffffffffffffff1673ffffffffffffffffffffffffffffffffffffffff166318160ddd6040518163ffffffff1660e01b8152600401602060405180830381865afa158015610edd573d6000803e3d6000fd5b505050506040513d601f19601f82011682018060405250810190610f01919061257f565b905080610f178584611e3190919063ffffffff16565b610f219190612455565b955080610f378484611e3190919063ffffffff16565b610f419190612455565b9450600086118015610f535750600085115b610f92576040517f08c379a0000000000000000000000000000000000000000000000000000000008152600401610f89906129a7565b60405180910390fd5b600560009054906101000a900473ffffffffffffffffffffffffffffffffffffffff1673ffffffffffffffffffffffffffffffffffffffff16636161eb1833846040518363ffffffff1660e01b8152600401610fef92919061283c565b600060405180830381600087803b15801561100957600080fd5b505af115801561101d573d6000803e3d6000fd5b50505050600360009054906101000a900473ffffffffffffffffffffffffffffffffffffffff1673ffffffffffffffffffffffffffffffffffffffff1663a9059cbb33886040518363ffffffff1660e01b815260040161107e92919061283c565b6020604051808303816000875af115801561109d573d6000803e3d6000fd5b505050506040513d601f19601f820116820180604052508101906110c1919061280f565b50600460009054906101000a900473ffffffffffffffffffffffffffffffffffffffff1673ffffffffffffffffffffffffffffffffffffffff1663a9059cbb33876040518363ffffffff1660e01b815260040161111f92919061283c565b6020604051808303816000875af115801561113e573d6000803e3d6000fd5b505050506040513d601f19601f82011682018060405250810190611162919061280f565b50600360009054906101000a900473ffffffffffffffffffffffffffffffffffffffff1673ffffffffffffffffffffffffffffffffffffffff166370a08231306040518263ffffffff1660e01b81526004016111be9190612865565b602060405180830381865afa1580156111db573d6000803e3d6000fd5b505050506040513d601f19601f820116820180604052508101906111ff919061257f565b9350600460009054906101000a900473ffffffffffffffffffffffffffffffffffffffff1673ffffffffffffffffffffffffffffffffffffffff166370a08231306040518263ffffffff1660e01b815260040161125c9190612865565b602060405180830381865afa158015611279573d6000803e3d6000fd5b505050506040513d601f19601f8201168201806040525081019061129d919061257f565b92506112a98484611b3d565b8673ffffffffffffffffffffffffffffffffffffffff163373ffffffffffffffffffffffffffffffffffffffff167f3d58404efba0e9fa8c42b15fd0c0aee3cc2ac3a59477f4e392bff292d49778798888604051611308929190612077565b60405180910390a350505050915091565b600080600061132661027a565b915091506000600360009054906101000a900473ffffffffffffffffffffffffffffffffffffffff1673ffffffffffffffffffffffffffffffffffffffff1663dd62ed3e33306040518363ffffffff1660e01b8152600401611389929190612541565b602060405180830381865afa1580156113a6573d6000803e3d6000fd5b505050506040513d601f19601f820116820180604052508101906113ca919061257f565b90506000600460009054906101000a900473ffffffffffffffffffffffffffffffffffffffff1673ffffffffffffffffffffffffffffffffffffffff1663dd62ed3e33306040518363ffffffff1660e01b815260040161142b929190612541565b602060405180830381865afa158015611448573d6000803e3d6000fd5b505050506040513d601f19601f8201168201806040525081019061146c919061257f565b905060008211801561147e5750600081115b6114bd576040517f08c379a00000000000000000000000000000000000000000000000000000000081526004016114b490612a13565b60405180910390fd5b6000600360009054906101000a900473ffffffffffffffffffffffffffffffffffffffff1673ffffffffffffffffffffffffffffffffffffffff166370a08231306040518263ffffffff1660e01b815260040161151a9190612865565b602060405180830381865afa158015611537573d6000803e3d6000fd5b505050506040513d601f19601f8201168201806040525081019061155b919061257f565b8361156691906126aa565b90506000600460009054906101000a900473ffffffffffffffffffffffffffffffffffffffff1673ffffffffffffffffffffffffffffffffffffffff166370a08231306040518263ffffffff1660e01b81526004016115c59190612865565b602060405180830381865afa1580156115e2573d6000803e3d6000fd5b505050506040513d601f19601f82011682018060405250810190611606919061257f565b8361161191906126aa565b905060006116288784611eb990919063ffffffff16565b9050600061163f8784611eb990919063ffffffff16565b90506000821180156116515750600081115b611690576040517f08c379a000000000000000000000000000000000000000000000000000000000815260040161168790612aa5565b60405180910390fd5b600360009054906101000a900473ffffffffffffffffffffffffffffffffffffffff1673ffffffffffffffffffffffffffffffffffffffff166323b872dd3330896040518463ffffffff1660e01b81526004016116ef939291906127a0565b6020604051808303816000875af115801561170e573d6000803e3d6000fd5b505050506040513d601f19601f82011682018060405250810190611732919061280f565b50600460009054906101000a900473ffffffffffffffffffffffffffffffffffffffff1673ffffffffffffffffffffffffffffffffffffffff166323b872dd3330886040518463ffffffff1660e01b8152600401611792939291906127a0565b6020604051808303816000875af11580156117b1573d6000803e3d6000fd5b505050506040513d601f19601f820116820180604052508101906117d5919061280f565b5060006117e58989600154611ee0565b905060006117f68686600154611ee0565b90506000600560009054906101000a900473ffffffffffffffffffffffffffffffffffffffff1673ffffffffffffffffffffffffffffffffffffffff166318160ddd6040518163ffffffff1660e01b8152600401602060405180830381865afa158015611867573d6000803e3d6000fd5b505050506040513d601f19601f8201168201806040525081019061188b919061257f565b9050600081141561189e57819b506118c3565b8283836118ab9190612700565b826118b691906123cc565b6118c09190612455565b9b505b6103e88c1015611908576040517f08c379a00000000000000000000000000000000000000000000000000000000081526004016118ff90612b11565b60405180910390fd5b600560009054906101000a900473ffffffffffffffffffffffffffffffffffffffff1673ffffffffffffffffffffffffffffffffffffffff16634e6ec2478e8e6040518363ffffffff1660e01b815260040161196592919061283c565b600060405180830381600087803b15801561197f57600080fd5b505af1158015611993573d6000803e3d6000fd5b50505050600360009054906101000a900473ffffffffffffffffffffffffffffffffffffffff1673ffffffffffffffffffffffffffffffffffffffff166370a08231306040518263ffffffff1660e01b81526004016119f29190612865565b602060405180830381865afa158015611a0f573d6000803e3d6000fd5b505050506040513d601f19601f82011682018060405250810190611a33919061257f565b9850600460009054906101000a900473ffffffffffffffffffffffffffffffffffffffff1673ffffffffffffffffffffffffffffffffffffffff166370a08231306040518263ffffffff1660e01b8152600401611a909190612865565b602060405180830381865afa158015611aad573d6000803e3d6000fd5b505050506040513d601f19601f82011682018060405250810190611ad1919061257f565b9750611add8989611b3d565b3373ffffffffffffffffffffffffffffffffffffffff167f06239653922ac7bea6aa2b19dc486b9361821d37712eb796adfd38d81de278ca8686604051611b25929190612077565b60405180910390a25050505050505050505050919050565b81600681905550806007819055507fcf2aa50876cdfbb541206f89af0ee78d44a2abf8d328e37fa4917f982149848a600654600754604051611b80929190612077565b60405180910390a15050565b600080600090506000805b8551811015611be257611bcd868281518110611bb657611bb5612486565b5b602002602001015184611e7290919063ffffffff16565b92508080611bda90612880565b915050611b97565b506000821415611bf757600092505050611e2b565b60008290506000611c12600287611e3190919063ffffffff16565b905060005b60ff811015611def57600083905060005b8951811015611c9857611c83611c6260028c8481518110611c4c57611c4b612486565b5b6020026020010151611e3190919063ffffffff16565b611c758785611e3190919063ffffffff16565b611e9e90919063ffffffff16565b91508080611c9090612880565b915050611c28565b50839450611d7b611d10611cc983611cbb60016002611e7290919063ffffffff16565b611e3190919063ffffffff16565b611d026064611cf489611ce660648b611eb990919063ffffffff16565b611e3190919063ffffffff16565b611e9e90919063ffffffff16565b611e7290919063ffffffff16565b611d6d86611d5f611d2b600287611e3190919063ffffffff16565b611d516064611d438e8c611e3190919063ffffffff16565b611e9e90919063ffffffff16565b611e7290919063ffffffff16565b611e3190919063ffffffff16565b611e9e90919063ffffffff16565b935084841115611db2576001611d9a8686611eb990919063ffffffff16565b11611dad57839650505050505050611e2b565b611ddb565b6001611dc78587611eb990919063ffffffff16565b11611dda57839650505050505050611e2b565b5b508080611de790612880565b915050611c17565b506040517f08c379a0000000000000000000000000000000000000000000000000000000008152600401611e2290612b7d565b60405180910390fd5b92915050565b6000808284611e4091906123cc565b90506000841480611e5b5750828482611e599190612455565b145b611e6857611e67612b9d565b5b8091505092915050565b6000808284611e8191906126aa565b905083811015611e9457611e93612b9d565b5b8091505092915050565b6000808284611ead9190612455565b90508091505092915050565b600082821115611ecc57611ecb612b9d565b5b8183611ed89190612700565b905092915050565b6000611ef5611eef85856101b0565b83611b8c565b90509392505050565b6000604051905090565b600080fd5b600080fd5b6000819050919050565b611f2581611f12565b8114611f3057600080fd5b50565b600081359050611f4281611f1c565b92915050565b60008060408385031215611f5f57611f5e611f08565b5b6000611f6d85828601611f33565b9250506020611f7e85828601611f33565b9150509250929050565b600081519050919050565b600082825260208201905092915050565b6000819050602082019050919050565b611fbd81611f12565b82525050565b6000611fcf8383611fb4565b60208301905092915050565b6000602082019050919050565b6000611ff382611f88565b611ffd8185611f93565b935061200883611fa4565b8060005b838110156120395781516120208882611fc3565b975061202b83611fdb565b92505060018101905061200c565b5085935050505092915050565b600060208201905081810360008301526120608184611fe8565b905092915050565b61207181611f12565b82525050565b600060408201905061208c6000830185612068565b6120996020830184612068565b9392505050565b600073ffffffffffffffffffffffffffffffffffffffff82169050919050565b60006120cb826120a0565b9050919050565b6120db816120c0565b81146120e657600080fd5b50565b6000813590506120f8816120d2565b92915050565b600080600080600060a0868803121561211a57612119611f08565b5b600061212888828901611f33565b955050602061213988828901611f33565b945050604061214a88828901611f33565b935050606061215b88828901611f33565b925050608061216c888289016120e9565b9150509295509295909350565b600060208201905061218e6000830184612068565b92915050565b600080fd5b6000601f19601f8301169050919050565b7f4e487b7100000000000000000000000000000000000000000000000000000000600052604160045260246000fd5b6121e282612199565b810181811067ffffffffffffffff82111715612201576122006121aa565b5b80604052505050565b6000612214611efe565b905061222082826121d9565b919050565b600067ffffffffffffffff8211156122405761223f6121aa565b5b602082029050602081019050919050565b600080fd5b600061226961226484612225565b61220a565b9050808382526020820190506020840283018581111561228c5761228b612251565b5b835b818110156122b557806122a18882611f33565b84526020840193505060208101905061228e565b5050509392505050565b600082601f8301126122d4576122d3612194565b5b81356122e4848260208601612256565b91505092915050565b6000806000806080858703121561230757612306611f08565b5b600061231587828801611f33565b945050602061232687828801611f33565b935050604061233787828801611f33565b925050606085013567ffffffffffffffff81111561235857612357611f0d565b5b612364878288016122bf565b91505092959194509250565b60006020828403121561238657612385611f08565b5b6000612394848285016120e9565b91505092915050565b7f4e487b7100000000000000000000000000000000000000000000000000000000600052601160045260246000fd5b60006123d782611f12565b91506123e283611f12565b9250817fffffffffffffffffffffffffffffffffffffffffffffffffffffffffffffffff048311821515161561241b5761241a61239d565b5b828202905092915050565b7f4e487b7100000000000000000000000000000000000000000000000000000000600052601260045260246000fd5b600061246082611f12565b915061246b83611f12565b92508261247b5761247a612426565b5b828204905092915050565b7f4e487b7100000000000000000000000000000000000000000000000000000000600052603260045260246000fd5b600082825260208201905092915050565b7f596f75206e65656420746f2070617920746f6b656e7300000000000000000000600082015250565b60006124fc6016836124b5565b9150612507826124c6565b602082019050919050565b6000602082019050818103600083015261252b816124ef565b9050919050565b61253b816120c0565b82525050565b60006040820190506125566000830185612532565b6125636020830184612532565b9392505050565b60008151905061257981611f1c565b92915050565b60006020828403121561259557612594611f08565b5b60006125a38482850161256a565b91505092915050565b7f596f752068617665206e6f7420616c6c6f7720656e6f75676820746f6b656e7360008201527f20746f207472616e736665720000000000000000000000000000000000000000602082015250565b6000612608602c836124b5565b9150612613826125ac565b604082019050919050565b60006020820190508181036000830152612637816125fb565b9050919050565b7f446f6e2774206861766520656e6f75676820746f6b656e730000000000000000600082015250565b60006126746018836124b5565b915061267f8261263e565b602082019050919050565b600060208201905081810360008301526126a381612667565b9050919050565b60006126b582611f12565b91506126c083611f12565b9250827fffffffffffffffffffffffffffffffffffffffffffffffffffffffffffffffff038211156126f5576126f461239d565b5b828201905092915050565b600061270b82611f12565b915061271683611f12565b9250828210156127295761272861239d565b5b828203905092915050565b7f43616e206e6f7420776974686472617720656e6f75676820746f6b656e730000600082015250565b600061276a601e836124b5565b915061277582612734565b602082019050919050565b600060208201905081810360008301526127998161275d565b9050919050565b60006060820190506127b56000830186612532565b6127c26020830185612532565b6127cf6040830184612068565b949350505050565b60008115159050919050565b6127ec816127d7565b81146127f757600080fd5b50565b600081519050612809816127e3565b92915050565b60006020828403121561282557612824611f08565b5b6000612833848285016127fa565b91505092915050565b60006040820190506128516000830185612532565b61285e6020830184612068565b9392505050565b600060208201905061287a6000830184612532565b92915050565b600061288b82611f12565b91507fffffffffffffffffffffffffffffffffffffffffffffffffffffffffffffffff8214156128be576128bd61239d565b5b600182019050919050565b7f4661696c656420746f20636f6e76657267650000000000000000000000000000600082015250565b60006128ff6012836124b5565b915061290a826128c9565b602082019050919050565b6000602082019050818103600083015261292e816128f2565b9050919050565b7f437572766520537761703a20494e53554646494349454e545f4c49515549444960008201527f54595f4255524e45440000000000000000000000000000000000000000000000602082015250565b60006129916029836124b5565b915061299c82612935565b604082019050919050565b600060208201905081810360008301526129c081612984565b9050919050565b7f596f752068617665206e6f7420617070726f766520626f746820746f6b656e73600082015250565b60006129fd6020836124b5565b9150612a08826129c7565b602082019050919050565b60006020820190508181036000830152612a2c816129f0565b9050919050565b7f596f75206e65656420746f2070757420626f746820746f6b656e7320696e207460008201527f686520706f6f6c2e000000000000000000000000000000000000000000000000602082015250565b6000612a8f6028836124b5565b9150612a9a82612a33565b604082019050919050565b60006020820190508181036000830152612abe81612a82565b9050919050565b7f536c697070616765207363726577656420796f75000000000000000000000000600082015250565b6000612afb6014836124b5565b9150612b0682612ac5565b602082019050919050565b60006020820190508181036000830152612b2a81612aee565b9050919050565b7f4420646976657267656400000000000000000000000000000000000000000000600082015250565b6000612b67600a836124b5565b9150612b7282612b31565b602082019050919050565b60006020820190508181036000830152612b9681612b5a565b9050919050565b7f4e487b7100000000000000000000000000000000000000000000000000000000600052600160045260246000fdfea26469706673582212203d737a973d2983fc1d8ee131466fe5dd23ca3c53e1b82417aa11edbdaed69e7a64736f6c634300080a0033",
  "immutableReferences": {},
  "source": "// SPDX-License-Identifier: MIT\r\npragma solidity ^0.8.0;\r\nimport './ERC20.sol';\r\nimport './Math.sol';\r\nimport './SafeMath.sol';\r\n\r\ncontract Curve{\r\n    using SafeMath for uint;\r\n    using Math for uint;\r\n    uint256 constant N=2;\r\n    uint256 RATES=10000;\r\n    uint256 amp;\r\n    uint256 PRECISION=10**4;\r\n    uint256 constant A_PRECISION=100;\r\n\r\n    ERC20 tokenA;\r\n    ERC20 tokenB;\r\n    ERC20 tokenLP;\r\n\r\n    uint256 private reserve0;\r\n    uint256 private reserve1;\r\n    uint256 public constant MINIMUM_LIQUIDITY=10**3;\r\n\r\n    constructor(address _tokenA,address _tokenB,address _tokenLP,uint256 _A){\r\n        tokenA=ERC20(_tokenA);\r\n        tokenB=ERC20(_tokenB);\r\n        tokenLP=ERC20(_tokenLP);\r\n        amp=_A;\r\n    }\r\n    event AddLiquidity(address indexed sender,uint256 amount0,uint256 amount1);\r\n    event RemoveLiquidity(address indexed sender,uint256 amount0,uint256 amount1,address indexed recipient);\r\n    event TokenExchange(address indexed sender,uint256 sold_id,uint256 amountIn,uint256 bought_id,uint256 amountOut,address recipient);\r\n    event Sync(uint256 reserve0, uint256 reserve1);\r\n\r\n\r\n    function _xp_mem(uint256 _reserve0, uint256 _reserve1) public view returns(uint256[] memory result) {\r\n        result = new uint256[](2);\r\n        result[0] = RATES * _reserve0 / PRECISION;\r\n        result[1] = RATES * _reserve1 / PRECISION;\r\n        return result;\r\n    }\r\n\r\n    function _get_D(uint256[] memory _xp, uint256 _amp) internal pure returns (uint256) {\r\n        uint256 S = 0;\r\n        uint256 Dprev = 0;\r\n\r\n        for (uint256 i = 0; i < _xp.length; i++) {\r\n            S = S.add(_xp[i]);\r\n        }\r\n        if (S == 0) {\r\n            return 0;\r\n        }\r\n\r\n        uint256 D = S;\r\n        uint256 Ann = _amp.mul(N);\r\n        for (uint256 i = 0; i < 255; i++) {\r\n            uint256 D_P = D;\r\n            for (uint256 j = 0; j < _xp.length; j++) {\r\n                D_P = D_P.mul(D).div(_xp[j].mul(N));\r\n                // If division by 0, this will be borked: only withdrawal will work. And that is good\r\n            }\r\n            Dprev = D;\r\n            D = Ann.mul(S).div(A_PRECISION).add(D_P.mul(N)).mul(D).div((Ann.sub(A_PRECISION)).mul(D).div(A_PRECISION).add((N.add(1)).mul(D_P)));\r\n            // Equality with the precision of 1\r\n            if (D > Dprev) {\r\n                if (D.sub(Dprev) <= 1) {\r\n                    return D;\r\n                }\r\n            } else {\r\n                if (Dprev.sub(D) <= 1) {\r\n                    return D;\r\n                }\r\n            }\r\n        }\r\n        // convergence typically occurs in 4 rounds or less, this should be unreachable!\r\n        // if it does happen the pool is borked and LPs can withdraw via `remove_liquidity`\r\n        revert(\"D diverged\");\r\n    }\r\n\r\n\r\n    function _get_D_mem(uint256 _reserve0,uint256 _reserve1,uint _amp)internal view returns(uint256 ){\r\n        return _get_D(_xp_mem(_reserve0,_reserve1),_amp);\r\n    }\r\n\r\n    function getReserves()public view returns(uint _reserve0, uint _reserve1){\r\n        _reserve0 = reserve0;\r\n        _reserve1 = reserve1;\r\n    }\r\n    function _update(uint balance0, uint balance1) private {\r\n        // Update the reserve\r\n        reserve0 = balance0;\r\n        reserve1 = balance1;\r\n        emit Sync(reserve0, reserve1);\r\n    }\r\n\r\n    function addLiquidity(address to)external returns(uint256 mint_amount){\r\n        (uint _reserve0, uint _reserve1) = getReserves(); // gas savings\r\n        // Approved balance\r\n        uint balance0 = tokenA.allowance(msg.sender,address(this));\r\n        uint balance1 = tokenB.allowance(msg.sender,address(this));\r\n\r\n        require(balance0 > 0 && balance1 >0,\"You have not approve both tokens\");\r\n\r\n        //Approved balance + existing balance\r\n        uint balanceAll0 = balance0 + tokenA.balanceOf(address(this));\r\n        uint balanceAll1 = balance1 + tokenB.balanceOf(address(this));\r\n        // Get the difference between the current balance and the last cached balance, you can get the newly injected liquidity\r\n        uint amount0 = balanceAll0.sub(_reserve0);\r\n        uint amount1 = balanceAll1.sub(_reserve1);\r\n        require(amount0 > 0 && amount1 >0,\"You need to put both tokens in the pool.\");\r\n        tokenA.transferFrom(msg.sender,address(this),balance0);\r\n        tokenB.transferFrom(msg.sender,address(this),balance1);\r\n\r\n\r\n        //(_reserve0,_reserve1) = getReserves();\r\n        //Initialize invariant\r\n        uint256 D0=_get_D_mem(_reserve0,_reserve1,amp);\r\n        uint256 D1=_get_D_mem(balanceAll0,balanceAll1,amp);\r\n        uint256 _totalSupply=tokenLP.totalSupply();\r\n        if(_totalSupply==0){\r\n            mint_amount=D1;\r\n        }else{\r\n            mint_amount=_totalSupply*(D1-D0)/D0;\r\n        }\r\n        require(mint_amount>=MINIMUM_LIQUIDITY,\"Slippage screwed you\");\r\n        //Mint LP tokens\r\n        tokenLP._mint(to,mint_amount);\r\n        balance0=tokenA.balanceOf(address(this));\r\n        balance1=tokenB.balanceOf(address(this));\r\n        _update(balance0,balance1);\r\n\r\n        emit AddLiquidity(msg.sender,amount0,amount1);\r\n    }\r\n\r\n    function removeLiquidity(address to)external returns (uint amount0, uint amount1){\r\n        uint balance0 = tokenA.balanceOf(address(this));\r\n        uint balance1 = tokenB.balanceOf(address(this));\r\n        uint256 balanceLP=tokenLP.balanceOf(msg.sender);\r\n        uint256 _totalSupply=tokenLP.totalSupply();\r\n\r\n        amount0=balanceLP.mul(balance0)/_totalSupply;\r\n        amount1=balanceLP.mul(balance1)/_totalSupply;\r\n        require(amount0 > 0 && amount1 > 0, 'Curve Swap: INSUFFICIENT_LIQUIDITY_BURNED');\r\n        tokenLP._burn(msg.sender,balanceLP);\r\n\r\n        tokenA.transfer(msg.sender,amount0);\r\n        tokenB.transfer(msg.sender,amount1);\r\n        // Get the balance after the transfer\r\n        balance0=tokenA.balanceOf(address(this));\r\n        balance1=tokenB.balanceOf(address(this));\r\n        _update(balance0,balance1);\r\n        emit RemoveLiquidity(msg.sender,amount0,amount1,to);\r\n    }\r\n\r\n\r\n    function _get_y(uint256 i, uint256 j, uint256 x, uint256[] memory _xp) public view returns (uint256) {\r\n\r\n        uint256 A = amp;\r\n        uint256 D = _get_D(_xp, A);\r\n        uint256 Ann = A.mul(N);\r\n        uint256 c = D;\r\n        uint256 S = 0;\r\n        uint256 _x = 0;\r\n        uint256 y_prev = 0;\r\n\r\n        for (uint256 _i = 0; _i < N; _i++) {\r\n            if (_i == i) {\r\n                _x = x;\r\n            } else if (_i != j) {\r\n                _x = _xp[_i];\r\n            } else {\r\n                continue;\r\n            }\r\n            S = S.add(_x);\r\n            c = c.mul(D).div(_x.mul(N));\r\n        }\r\n        c = c.mul(D).mul(A_PRECISION).div(Ann.mul(N));\r\n        uint256 b = S.add(D.mul(A_PRECISION).div(Ann));\r\n        uint256 y = D;\r\n\r\n        for (uint256 _i = 0; _i < 255; _i++) {\r\n            y_prev = y;\r\n            y = y.mul(y).add(c).div(y.mul(2).add(b).sub(D));\r\n            if (y > y_prev) {\r\n                if (y.sub(y_prev) <= 1) {\r\n                    return y;\r\n                }\r\n            } else {\r\n                if (y_prev.sub(y) <= 1) {\r\n                    return y;\r\n                }\r\n            }\r\n        }\r\n        revert(\"Failed to converge\");\r\n    }\r\n\r\n    /*\r\n      i Index value for the coin to send\r\n      j Index valie of the coin to recieve\r\n      _dx Amount of `i` being exchanged\r\n      _min_dy Minimum amount of `j` to receive\r\n    */\r\n    function exchange(uint256 i,uint256 j,uint256 _dx,uint256 _min_dy,address to)external returns (uint256){\r\n        require(_dx>0,\"You need to pay tokens\");\r\n        require(i!=j&&(j>=0&&j<N)&&(i>=0&&i<N));\r\n        require(tokenA.allowance(msg.sender,address(this))>=_dx||tokenB.allowance(msg.sender,address(this))>=_dx,\"You have not allow enough tokens to transfer\");\r\n        (uint _reserve0, uint _reserve1)=getReserves();\r\n        require(_reserve0>_min_dy||_reserve1>_min_dy,\"Don't have enough tokens\");\r\n\r\n        uint256[] memory xp=_xp_mem(_reserve0,_reserve1);\r\n        uint256 x=xp[i]+_dx;\r\n        uint256 y=_get_y(i,j,x,xp);\r\n        uint256 amountOut=(xp[j]-y)*PRECISION/RATES;\r\n        require(amountOut>_min_dy,\"Can not withdraw enough tokens\");\r\n\r\n        if(i==0&&j==1){\r\n            tokenA.transferFrom(msg.sender,address(this),_dx);\r\n            tokenB.transfer(to,amountOut);\r\n        }else if(i==1&&j==0){\r\n            tokenB.transferFrom(msg.sender,address(this),_dx);\r\n            tokenA.transfer(to,amountOut);\r\n        }\r\n\r\n        uint256 balance0=tokenA.balanceOf(address(this));\r\n        uint256 balance1=tokenB.balanceOf(address(this));\r\n        _update(balance0,balance1);\r\n        return amountOut;\r\n        //emit TokenExchange(msg.sender,i,_dx,j,amountOut,to);\r\n    }\r\n\r\n}",
  "sourcePath": "C:\\Users\\10201\\Desktop\\MySwap\\contracts\\Curve.sol",
  "compiler": {
    "name": "solc",
    "version": "0.8.10+commit.fc410830.Emscripten.clang"
  },
  "schemaVersion": "3.4.3",
  "updatedAt": "2023-04-07T13:27:02.076Z",
  "devdoc": {
    "kind": "dev",
    "methods": {},
    "version": 1
  },
  "userdoc": {
    "kind": "user",
    "methods": {},
    "version": 1
  }
}