{
  "contractName": "Pool",
  "abi": [
    {
      "inputs": [
        {
          "internalType": "address",
          "name": "_token1",
          "type": "address"
        },
        {
          "internalType": "address",
          "name": "_token2",
          "type": "address"
        },
        {
          "internalType": "address",
          "name": "_TokenLP",
          "type": "address"
        }
      ],
      "stateMutability": "nonpayable",
      "type": "constructor"
    },
    {
      "anonymous": false,
      "inputs": [
        {
          "indexed": true,
          "internalType": "address",
          "name": "sender",
          "type": "address"
        },
        {
          "indexed": false,
          "internalType": "uint256",
          "name": "amount0",
          "type": "uint256"
        },
        {
          "indexed": false,
          "internalType": "uint256",
          "name": "amount1",
          "type": "uint256"
        },
        {
          "indexed": true,
          "internalType": "address",
          "name": "to",
          "type": "address"
        }
      ],
      "name": "Burn",
      "type": "event"
    },
    {
      "anonymous": false,
      "inputs": [
        {
          "indexed": true,
          "internalType": "address",
          "name": "sender",
          "type": "address"
        },
        {
          "indexed": false,
          "internalType": "uint256",
          "name": "amount0",
          "type": "uint256"
        },
        {
          "indexed": false,
          "internalType": "uint256",
          "name": "amount1",
          "type": "uint256"
        }
      ],
      "name": "Mint",
      "type": "event"
    },
    {
      "anonymous": false,
      "inputs": [
        {
          "indexed": true,
          "internalType": "address",
          "name": "sender",
          "type": "address"
        },
        {
          "indexed": false,
          "internalType": "uint256",
          "name": "amountIn",
          "type": "uint256"
        },
        {
          "indexed": false,
          "internalType": "bool",
          "name": "tokenType",
          "type": "bool"
        },
        {
          "indexed": false,
          "internalType": "uint256",
          "name": "minimumOut",
          "type": "uint256"
        },
        {
          "indexed": false,
          "internalType": "uint256",
          "name": "amountOut",
          "type": "uint256"
        },
        {
          "indexed": true,
          "internalType": "address",
          "name": "to",
          "type": "address"
        }
      ],
      "name": "Swap",
      "type": "event"
    },
    {
      "anonymous": false,
      "inputs": [
        {
          "indexed": false,
          "internalType": "uint256",
          "name": "reserve0",
          "type": "uint256"
        },
        {
          "indexed": false,
          "internalType": "uint256",
          "name": "reserve1",
          "type": "uint256"
        }
      ],
      "name": "Sync",
      "type": "event"
    },
    {
      "inputs": [],
      "name": "MINIMUM_LIQUIDITY",
      "outputs": [
        {
          "internalType": "uint256",
          "name": "",
          "type": "uint256"
        }
      ],
      "stateMutability": "view",
      "type": "function"
    },
    {
      "inputs": [],
      "name": "x",
      "outputs": [
        {
          "internalType": "uint256",
          "name": "",
          "type": "uint256"
        }
      ],
      "stateMutability": "view",
      "type": "function"
    },
    {
      "inputs": [],
      "name": "y",
      "outputs": [
        {
          "internalType": "uint256",
          "name": "",
          "type": "uint256"
        }
      ],
      "stateMutability": "view",
      "type": "function"
    },
    {
      "inputs": [],
      "name": "getReserves",
      "outputs": [
        {
          "internalType": "uint256",
          "name": "_reserve0",
          "type": "uint256"
        },
        {
          "internalType": "uint256",
          "name": "_reserve1",
          "type": "uint256"
        }
      ],
      "stateMutability": "view",
      "type": "function"
    },
    {
      "inputs": [
        {
          "internalType": "address",
          "name": "to",
          "type": "address"
        }
      ],
      "name": "mint",
      "outputs": [
        {
          "internalType": "uint256",
          "name": "liquidity",
          "type": "uint256"
        }
      ],
      "stateMutability": "nonpayable",
      "type": "function"
    },
    {
      "inputs": [
        {
          "internalType": "address",
          "name": "to",
          "type": "address"
        }
      ],
      "name": "burn",
      "outputs": [
        {
          "internalType": "uint256",
          "name": "amount0",
          "type": "uint256"
        },
        {
          "internalType": "uint256",
          "name": "amount1",
          "type": "uint256"
        }
      ],
      "stateMutability": "nonpayable",
      "type": "function"
    },
    {
      "inputs": [
        {
          "internalType": "uint256",
          "name": "amountIn",
          "type": "uint256"
        },
        {
          "internalType": "bool",
          "name": "tokenType",
          "type": "bool"
        },
        {
          "internalType": "uint256",
          "name": "minimumOut",
          "type": "uint256"
        },
        {
          "internalType": "address",
          "name": "to",
          "type": "address"
        }
      ],
      "name": "swap",
      "outputs": [
        {
          "internalType": "uint256",
          "name": "",
          "type": "uint256"
        }
      ],
      "stateMutability": "nonpayable",
      "type": "function"
    },
    {
      "inputs": [
        {
          "internalType": "uint256",
          "name": "amountIn",
          "type": "uint256"
        },
        {
          "internalType": "bool",
          "name": "tokenType",
          "type": "bool"
        }
      ],
      "name": "trySwap",
      "outputs": [
        {
          "internalType": "uint256",
          "name": "",
          "type": "uint256"
        }
      ],
      "stateMutability": "view",
      "type": "function"
    }
  ],
  "bytecode": "0x60806040523480156200001157600080fd5b50604051620029933803806200299383398181016040528101906200003791906200016d565b82600360006101000a81548173ffffffffffffffffffffffffffffffffffffffff021916908373ffffffffffffffffffffffffffffffffffffffff16021790555081600460006101000a81548173ffffffffffffffffffffffffffffffffffffffff021916908373ffffffffffffffffffffffffffffffffffffffff16021790555080600560006101000a81548173ffffffffffffffffffffffffffffffffffffffff021916908373ffffffffffffffffffffffffffffffffffffffff160217905550505050620001c9565b600080fd5b600073ffffffffffffffffffffffffffffffffffffffff82169050919050565b6000620001358262000108565b9050919050565b620001478162000128565b81146200015357600080fd5b50565b60008151905062000167816200013c565b92915050565b60008060006060848603121562000189576200018862000103565b5b6000620001998682870162000156565b9350506020620001ac8682870162000156565b9250506040620001bf8682870162000156565b9150509250925092565b6127ba80620001d96000396000f3fe608060405234801561001057600080fd5b50600436106100885760003560e01c806389afcb441161005b57806389afcb441461012a578063a56dfe4a1461015b578063ba9a7a5614610179578063ddcab5261461019757610088565b80630902f1ac1461008d5780630c55699c146100ac57806368a0c9bb146100ca5780636a627842146100fa575b600080fd5b6100956101c7565b6040516100a3929190611e6f565b60405180910390f35b6100b46101d8565b6040516100c19190611e98565b60405180910390f35b6100e460048036038101906100df9190611f1c565b6101de565b6040516100f19190611e98565b60405180910390f35b610114600480360381019061010f9190611fba565b610275565b6040516101219190611e98565b60405180910390f35b610144600480360381019061013f9190611fba565b610c15565b604051610152929190611e6f565b60405180910390f35b6101636113e7565b6040516101709190611e98565b60405180910390f35b6101816113ed565b60405161018e9190611e98565b60405180910390f35b6101b160048036038101906101ac9190611fe7565b6113f3565b6040516101be9190611e98565b60405180910390f35b600080600854915060095490509091565b60065481565b60008060006101eb6101c7565b9150915060008015158515151415610235578583610209919061207d565b60075460065461021991906120d3565b610223919061215c565b8261022e919061218d565b9050610269565b8582610241919061207d565b60075460065461025191906120d3565b61025b919061215c565b83610266919061218d565b90505b80935050505092915050565b60008060006102826101c7565b915091506000600360009054906101000a900473ffffffffffffffffffffffffffffffffffffffff1673ffffffffffffffffffffffffffffffffffffffff1663dd62ed3e33306040518363ffffffff1660e01b81526004016102e59291906121d0565b602060405180830381865afa158015610302573d6000803e3d6000fd5b505050506040513d601f19601f82011682018060405250810190610326919061220e565b90506000600460009054906101000a900473ffffffffffffffffffffffffffffffffffffffff1673ffffffffffffffffffffffffffffffffffffffff1663dd62ed3e33306040518363ffffffff1660e01b81526004016103879291906121d0565b602060405180830381865afa1580156103a4573d6000803e3d6000fd5b505050506040513d601f19601f820116820180604052508101906103c8919061220e565b90506000821180156103da5750600081115b610419576040517f08c379a000000000000000000000000000000000000000000000000000000000815260040161041090612298565b60405180910390fd5b6000600360009054906101000a900473ffffffffffffffffffffffffffffffffffffffff1673ffffffffffffffffffffffffffffffffffffffff166370a08231306040518263ffffffff1660e01b815260040161047691906122b8565b602060405180830381865afa158015610493573d6000803e3d6000fd5b505050506040513d601f19601f820116820180604052508101906104b7919061220e565b836104c2919061207d565b90506000600460009054906101000a900473ffffffffffffffffffffffffffffffffffffffff1673ffffffffffffffffffffffffffffffffffffffff166370a08231306040518263ffffffff1660e01b815260040161052191906122b8565b602060405180830381865afa15801561053e573d6000803e3d6000fd5b505050506040513d601f19601f82011682018060405250810190610562919061220e565b8361056d919061207d565b905060006105848784611bab90919063ffffffff16565b9050600061059b8784611bab90919063ffffffff16565b90506000821180156105ad5750600081115b6105ec576040517f08c379a00000000000000000000000000000000000000000000000000000000081526004016105e390612345565b60405180910390fd5b600360009054906101000a900473ffffffffffffffffffffffffffffffffffffffff1673ffffffffffffffffffffffffffffffffffffffff166323b872dd3330896040518463ffffffff1660e01b815260040161064b93929190612365565b6020604051808303816000875af115801561066a573d6000803e3d6000fd5b505050506040513d601f19601f8201168201806040525081019061068e91906123b1565b50600460009054906101000a900473ffffffffffffffffffffffffffffffffffffffff1673ffffffffffffffffffffffffffffffffffffffff166323b872dd3330886040518463ffffffff1660e01b81526004016106ee93929190612365565b6020604051808303816000875af115801561070d573d6000803e3d6000fd5b505050506040513d601f19601f8201168201806040525081019061073191906123b1565b506000600560009054906101000a900473ffffffffffffffffffffffffffffffffffffffff1673ffffffffffffffffffffffffffffffffffffffff166318160ddd6040518163ffffffff1660e01b8152600401602060405180830381865afa1580156107a1573d6000803e3d6000fd5b505050506040513d601f19601f820116820180604052508101906107c5919061220e565b90506000811415610814576107ff6103e86107f16107ec8587611bd290919063ffffffff16565b611c13565b611bab90919063ffffffff16565b9950826006819055508160078190555061099f565b6108588961082b8386611bd290919063ffffffff16565b610835919061215c565b896108498486611bd290919063ffffffff16565b610853919061215c565b611d0d565b9950600360009054906101000a900473ffffffffffffffffffffffffffffffffffffffff1673ffffffffffffffffffffffffffffffffffffffff166370a08231306040518263ffffffff1660e01b81526004016108b591906122b8565b602060405180830381865afa1580156108d2573d6000803e3d6000fd5b505050506040513d601f19601f820116820180604052508101906108f6919061220e565b600681905550600460009054906101000a900473ffffffffffffffffffffffffffffffffffffffff1673ffffffffffffffffffffffffffffffffffffffff166370a08231306040518263ffffffff1660e01b815260040161095791906122b8565b602060405180830381865afa158015610974573d6000803e3d6000fd5b505050506040513d601f19601f82011682018060405250810190610998919061220e565b6007819055505b60008a116109e2576040517f08c379a00000000000000000000000000000000000000000000000000000000081526004016109d990612450565b60405180910390fd5b600560009054906101000a900473ffffffffffffffffffffffffffffffffffffffff1673ffffffffffffffffffffffffffffffffffffffff16634e6ec2478c8c6040518363ffffffff1660e01b8152600401610a3f929190612470565b600060405180830381600087803b158015610a5957600080fd5b505af1158015610a6d573d6000803e3d6000fd5b50505050600360009054906101000a900473ffffffffffffffffffffffffffffffffffffffff1673ffffffffffffffffffffffffffffffffffffffff166370a08231306040518263ffffffff1660e01b8152600401610acc91906122b8565b602060405180830381865afa158015610ae9573d6000803e3d6000fd5b505050506040513d601f19601f82011682018060405250810190610b0d919061220e565b9650600460009054906101000a900473ffffffffffffffffffffffffffffffffffffffff1673ffffffffffffffffffffffffffffffffffffffff166370a08231306040518263ffffffff1660e01b8152600401610b6a91906122b8565b602060405180830381865afa158015610b87573d6000803e3d6000fd5b505050506040513d601f19601f82011682018060405250810190610bab919061220e565b9550610bb78787611d26565b3373ffffffffffffffffffffffffffffffffffffffff167f4c209b5fc8ad50758f13e2e1088ba56a560dff690a1c6fef26394f4c03821c4f8484604051610bff929190611e6f565b60405180910390a2505050505050505050919050565b6000806000600360009054906101000a900473ffffffffffffffffffffffffffffffffffffffff1673ffffffffffffffffffffffffffffffffffffffff166370a08231306040518263ffffffff1660e01b8152600401610c7591906122b8565b602060405180830381865afa158015610c92573d6000803e3d6000fd5b505050506040513d601f19601f82011682018060405250810190610cb6919061220e565b90506000600460009054906101000a900473ffffffffffffffffffffffffffffffffffffffff1673ffffffffffffffffffffffffffffffffffffffff166370a08231306040518263ffffffff1660e01b8152600401610d1591906122b8565b602060405180830381865afa158015610d32573d6000803e3d6000fd5b505050506040513d601f19601f82011682018060405250810190610d56919061220e565b90506000600560009054906101000a900473ffffffffffffffffffffffffffffffffffffffff1673ffffffffffffffffffffffffffffffffffffffff166370a08231336040518263ffffffff1660e01b8152600401610db591906122b8565b602060405180830381865afa158015610dd2573d6000803e3d6000fd5b505050506040513d601f19601f82011682018060405250810190610df6919061220e565b90506000600560009054906101000a900473ffffffffffffffffffffffffffffffffffffffff1673ffffffffffffffffffffffffffffffffffffffff166318160ddd6040518163ffffffff1660e01b8152600401602060405180830381865afa158015610e67573d6000803e3d6000fd5b505050506040513d601f19601f82011682018060405250810190610e8b919061220e565b905080610ea18584611bd290919063ffffffff16565b610eab919061215c565b955080610ec18484611bd290919063ffffffff16565b610ecb919061215c565b9450600086118015610edd5750600085115b610f1c576040517f08c379a0000000000000000000000000000000000000000000000000000000008152600401610f139061250b565b60405180910390fd5b600560009054906101000a900473ffffffffffffffffffffffffffffffffffffffff1673ffffffffffffffffffffffffffffffffffffffff16636161eb1833846040518363ffffffff1660e01b8152600401610f79929190612470565b600060405180830381600087803b158015610f9357600080fd5b505af1158015610fa7573d6000803e3d6000fd5b50505050600360009054906101000a900473ffffffffffffffffffffffffffffffffffffffff1673ffffffffffffffffffffffffffffffffffffffff1663a9059cbb33886040518363ffffffff1660e01b8152600401611008929190612470565b6020604051808303816000875af1158015611027573d6000803e3d6000fd5b505050506040513d601f19601f8201168201806040525081019061104b91906123b1565b50600460009054906101000a900473ffffffffffffffffffffffffffffffffffffffff1673ffffffffffffffffffffffffffffffffffffffff1663a9059cbb33876040518363ffffffff1660e01b81526004016110a9929190612470565b6020604051808303816000875af11580156110c8573d6000803e3d6000fd5b505050506040513d601f19601f820116820180604052508101906110ec91906123b1565b50600360009054906101000a900473ffffffffffffffffffffffffffffffffffffffff1673ffffffffffffffffffffffffffffffffffffffff166370a08231306040518263ffffffff1660e01b815260040161114891906122b8565b602060405180830381865afa158015611165573d6000803e3d6000fd5b505050506040513d601f19601f82011682018060405250810190611189919061220e565b9350600460009054906101000a900473ffffffffffffffffffffffffffffffffffffffff1673ffffffffffffffffffffffffffffffffffffffff166370a08231306040518263ffffffff1660e01b81526004016111e691906122b8565b602060405180830381865afa158015611203573d6000803e3d6000fd5b505050506040513d601f19601f82011682018060405250810190611227919061220e565b92506112338484611d26565b600360009054906101000a900473ffffffffffffffffffffffffffffffffffffffff1673ffffffffffffffffffffffffffffffffffffffff166370a08231306040518263ffffffff1660e01b815260040161128e91906122b8565b602060405180830381865afa1580156112ab573d6000803e3d6000fd5b505050506040513d601f19601f820116820180604052508101906112cf919061220e565b600681905550600460009054906101000a900473ffffffffffffffffffffffffffffffffffffffff1673ffffffffffffffffffffffffffffffffffffffff166370a08231306040518263ffffffff1660e01b815260040161133091906122b8565b602060405180830381865afa15801561134d573d6000803e3d6000fd5b505050506040513d601f19601f82011682018060405250810190611371919061220e565b6007819055508673ffffffffffffffffffffffffffffffffffffffff163373ffffffffffffffffffffffffffffffffffffffff167fdccd412f0b1252819cb1fd330b93224ca42612892bb3f4f789976e6d8193649688886040516113d6929190611e6f565b60405180910390a350505050915091565b60075481565b6103e881565b6000808511611437576040517f08c379a000000000000000000000000000000000000000000000000000000000815260040161142e90612577565b60405180910390fd5b600015158415151480156114e8575084600360009054906101000a900473ffffffffffffffffffffffffffffffffffffffff1673ffffffffffffffffffffffffffffffffffffffff1663dd62ed3e33306040518363ffffffff1660e01b81526004016114a49291906121d0565b602060405180830381865afa1580156114c1573d6000803e3d6000fd5b505050506040513d601f19601f820116820180604052508101906114e5919061220e565b10155b806115a057506001151584151514801561159f575084600460009054906101000a900473ffffffffffffffffffffffffffffffffffffffff1673ffffffffffffffffffffffffffffffffffffffff1663dd62ed3e33306040518363ffffffff1660e01b815260040161155b9291906121d0565b602060405180830381865afa158015611578573d6000803e3d6000fd5b505050506040513d601f19601f8201168201806040525081019061159c919061220e565b10155b5b6115df576040517f08c379a00000000000000000000000000000000000000000000000000000000081526004016115d690612609565b60405180910390fd5b6000806115ea6101c7565b915091506000151586151514801561160157508482115b8061161b57506001151586151514801561161a57508481115b5b61165a576040517f08c379a000000000000000000000000000000000000000000000000000000000815260040161165190612675565b60405180910390fd5b600080839050600083905060001515891515141561183057898561167e919061207d565b60075460065461168e91906120d3565b611698919061215c565b846116a3919061218d565b92508783116116e7576040517f08c379a00000000000000000000000000000000000000000000000000000000081526004016116de906126e1565b60405180910390fd5b600360009054906101000a900473ffffffffffffffffffffffffffffffffffffffff1673ffffffffffffffffffffffffffffffffffffffff166323b872dd33308d6040518463ffffffff1660e01b815260040161174693929190612365565b6020604051808303816000875af1158015611765573d6000803e3d6000fd5b505050506040513d601f19601f8201168201806040525081019061178991906123b1565b50600460009054906101000a900473ffffffffffffffffffffffffffffffffffffffff1673ffffffffffffffffffffffffffffffffffffffff1663a9059cbb88856040518363ffffffff1660e01b81526004016117e7929190612470565b6020604051808303816000875af1158015611806573d6000803e3d6000fd5b505050506040513d601f19601f8201168201806040525081019061182a91906123b1565b506119ea565b898461183c919061207d565b60075460065461184c91906120d3565b611856919061215c565b85611861919061218d565b92508783116118a5576040517f08c379a000000000000000000000000000000000000000000000000000000000815260040161189c906126e1565b60405180910390fd5b600460009054906101000a900473ffffffffffffffffffffffffffffffffffffffff1673ffffffffffffffffffffffffffffffffffffffff166323b872dd33308d6040518463ffffffff1660e01b815260040161190493929190612365565b6020604051808303816000875af1158015611923573d6000803e3d6000fd5b505050506040513d601f19601f8201168201806040525081019061194791906123b1565b50600360009054906101000a900473ffffffffffffffffffffffffffffffffffffffff1673ffffffffffffffffffffffffffffffffffffffff1663a9059cbb88856040518363ffffffff1660e01b81526004016119a5929190612470565b6020604051808303816000875af11580156119c4573d6000803e3d6000fd5b505050506040513d601f19601f820116820180604052508101906119e891906123b1565b505b600360009054906101000a900473ffffffffffffffffffffffffffffffffffffffff1673ffffffffffffffffffffffffffffffffffffffff166370a08231306040518263ffffffff1660e01b8152600401611a4591906122b8565b602060405180830381865afa158015611a62573d6000803e3d6000fd5b505050506040513d601f19601f82011682018060405250810190611a86919061220e565b9150600460009054906101000a900473ffffffffffffffffffffffffffffffffffffffff1673ffffffffffffffffffffffffffffffffffffffff166370a08231306040518263ffffffff1660e01b8152600401611ae391906122b8565b602060405180830381865afa158015611b00573d6000803e3d6000fd5b505050506040513d601f19601f82011682018060405250810190611b24919061220e565b9050611b308282611d26565b8673ffffffffffffffffffffffffffffffffffffffff163373ffffffffffffffffffffffffffffffffffffffff167fe51974a6a07c21792d4c6e6a42c08e70e7ee36459e67b1214dd7418cabc272fb8c8c8c88604051611b939493929190612710565b60405180910390a38295505050505050949350505050565b600082821115611bbe57611bbd612755565b5b8183611bca919061218d565b905092915050565b6000808284611be191906120d3565b90506000841480611bfc5750828482611bfa919061215c565b145b611c0957611c08612755565b5b8091505092915050565b600080821415611c265760009050611d08565b60006001611c3384611d75565b901c6001901b90506001818481611c4d57611c4c61212d565b5b048201901c90506001818481611c6657611c6561212d565b5b048201901c90506001818481611c7f57611c7e61212d565b5b048201901c90506001818481611c9857611c9761212d565b5b048201901c90506001818481611cb157611cb061212d565b5b048201901c90506001818481611cca57611cc961212d565b5b048201901c90506001818481611ce357611ce261212d565b5b048201901c9050611d0481828581611cfe57611cfd61212d565b5b04611d0d565b9150505b919050565b6000818310611d1c5781611d1e565b825b905092915050565b81600881905550806009819055507fcf2aa50876cdfbb541206f89af0ee78d44a2abf8d328e37fa4917f982149848a600854600954604051611d69929190611e6f565b60405180910390a15050565b600080600090506000608084901c1115611d9757608083901c92506080810190505b6000604084901c1115611db257604083901c92506040810190505b6000602084901c1115611dcd57602083901c92506020810190505b6000601084901c1115611de857601083901c92506010810190505b6000600884901c1115611e0357600883901c92506008810190505b6000600484901c1115611e1e57600483901c92506004810190505b6000600284901c1115611e3957600283901c92506002810190505b6000600184901c1115611e4d576001810190505b80915050919050565b6000819050919050565b611e6981611e56565b82525050565b6000604082019050611e846000830185611e60565b611e916020830184611e60565b9392505050565b6000602082019050611ead6000830184611e60565b92915050565b600080fd5b611ec181611e56565b8114611ecc57600080fd5b50565b600081359050611ede81611eb8565b92915050565b60008115159050919050565b611ef981611ee4565b8114611f0457600080fd5b50565b600081359050611f1681611ef0565b92915050565b60008060408385031215611f3357611f32611eb3565b5b6000611f4185828601611ecf565b9250506020611f5285828601611f07565b9150509250929050565b600073ffffffffffffffffffffffffffffffffffffffff82169050919050565b6000611f8782611f5c565b9050919050565b611f9781611f7c565b8114611fa257600080fd5b50565b600081359050611fb481611f8e565b92915050565b600060208284031215611fd057611fcf611eb3565b5b6000611fde84828501611fa5565b91505092915050565b6000806000806080858703121561200157612000611eb3565b5b600061200f87828801611ecf565b945050602061202087828801611f07565b935050604061203187828801611ecf565b925050606061204287828801611fa5565b91505092959194509250565b7f4e487b7100000000000000000000000000000000000000000000000000000000600052601160045260246000fd5b600061208882611e56565b915061209383611e56565b9250827fffffffffffffffffffffffffffffffffffffffffffffffffffffffffffffffff038211156120c8576120c761204e565b5b828201905092915050565b60006120de82611e56565b91506120e983611e56565b9250817fffffffffffffffffffffffffffffffffffffffffffffffffffffffffffffffff04831182151516156121225761212161204e565b5b828202905092915050565b7f4e487b7100000000000000000000000000000000000000000000000000000000600052601260045260246000fd5b600061216782611e56565b915061217283611e56565b9250826121825761218161212d565b5b828204905092915050565b600061219882611e56565b91506121a383611e56565b9250828210156121b6576121b561204e565b5b828203905092915050565b6121ca81611f7c565b82525050565b60006040820190506121e560008301856121c1565b6121f260208301846121c1565b9392505050565b60008151905061220881611eb8565b92915050565b60006020828403121561222457612223611eb3565b5b6000612232848285016121f9565b91505092915050565b600082825260208201905092915050565b7f596f752068617665206e6f7420617070726f766520626f746820746f6b656e73600082015250565b600061228260208361223b565b915061228d8261224c565b602082019050919050565b600060208201905081810360008301526122b181612275565b9050919050565b60006020820190506122cd60008301846121c1565b92915050565b7f596f75206e65656420746f2070757420626f746820746f6b656e7320696e207460008201527f686520706f6f6c2e000000000000000000000000000000000000000000000000602082015250565b600061232f60288361223b565b915061233a826122d3565b604082019050919050565b6000602082019050818103600083015261235e81612322565b9050919050565b600060608201905061237a60008301866121c1565b61238760208301856121c1565b6123946040830184611e60565b949350505050565b6000815190506123ab81611ef0565b92915050565b6000602082840312156123c7576123c6611eb3565b5b60006123d58482850161239c565b91505092915050565b7f556e697377617056323a20494e53554646494349454e545f4c4951554944495460008201527f595f4d494e544544000000000000000000000000000000000000000000000000602082015250565b600061243a60288361223b565b9150612445826123de565b604082019050919050565b600060208201905081810360008301526124698161242d565b9050919050565b600060408201905061248560008301856121c1565b6124926020830184611e60565b9392505050565b7f556e697377617056323a20494e53554646494349454e545f4c4951554944495460008201527f595f4255524e4544000000000000000000000000000000000000000000000000602082015250565b60006124f560288361223b565b915061250082612499565b604082019050919050565b60006020820190508181036000830152612524816124e8565b9050919050565b7f596f75206e65656420746f2070617920746f6b656e732e000000000000000000600082015250565b600061256160178361223b565b915061256c8261252b565b602082019050919050565b6000602082019050818103600083015261259081612554565b9050919050565b7f596f752068617665206e6f7420616c6c6f7720656e6f75676820746f6b656e7360008201527f20746f207472616e736665722e00000000000000000000000000000000000000602082015250565b60006125f3602d8361223b565b91506125fe82612597565b604082019050919050565b60006020820190508181036000830152612622816125e6565b9050919050565b7f446f206e6f74206861766520656e6f75676820746f6b656e732e000000000000600082015250565b600061265f601a8361223b565b915061266a82612629565b602082019050919050565b6000602082019050818103600083015261268e81612652565b9050919050565b7f43616e206e6f7420776974686472617720656e6f75676820746f6b656e732e00600082015250565b60006126cb601f8361223b565b91506126d682612695565b602082019050919050565b600060208201905081810360008301526126fa816126be565b9050919050565b61270a81611ee4565b82525050565b60006080820190506127256000830187611e60565b6127326020830186612701565b61273f6040830185611e60565b61274c6060830184611e60565b95945050505050565b7f4e487b7100000000000000000000000000000000000000000000000000000000600052600160045260246000fdfea2646970667358221220ef0bde7fbc6459d3eb7a38edeb6c4474ff11f9ff6d22f59728b28f5ff753fbda64736f6c634300080a0033",
  "immutableReferences": {},
  "source": "// SPDX-License-Identifier: MIT\r\npragma solidity ^0.8.0;\r\nimport './ERC20.sol';\r\nimport './Math.sol';\r\nimport './SafeMath.sol';\r\n\r\ncontract Pool{\r\n    using SafeMath  for uint;\r\n    address token1;\r\n    address token2;\r\n    address tokenLP;\r\n    ERC20 TokenA;\r\n    ERC20 TokenB;\r\n    ERC20 TokenLP;\r\n    //k = x * y\r\n    uint public x;\r\n    uint public y;\r\n    constructor(address _token1,address _token2,address _TokenLP){\r\n        TokenA = ERC20(_token1);\r\n        TokenB = ERC20(_token2);\r\n        TokenLP = ERC20(_TokenLP);\r\n    }\r\n\r\n    uint public constant MINIMUM_LIQUIDITY = 10**3;\r\n    uint private reserve0;\r\n    uint private reserve1;\r\n    function getReserves() public view returns (uint _reserve0, uint _reserve1) {\r\n        _reserve0 = reserve0;\r\n        _reserve1 = reserve1;\r\n        // \r\n    }\r\n\r\n    event Mint(address indexed sender, uint amount0, uint amount1);\r\n    event Burn(address indexed sender, uint amount0, uint amount1, address indexed to);\r\n    event Swap(address indexed sender,uint amountIn,bool tokenType,uint minimumOut,uint amountOut,address indexed to);\r\n    event Sync(uint reserve0, uint reserve1);\r\n\r\n    function _update(uint balance0, uint balance1) private {\r\n        // reserve\r\n        reserve0 = balance0;\r\n        reserve1 = balance1;\r\n        emit Sync(reserve0, reserve1);\r\n    }\r\n\r\n    function mint(address to) external returns (uint liquidity) {\r\n        (uint _reserve0, uint _reserve1) = getReserves(); // gas savings\r\n        // token\r\n        uint balance0 = TokenA.allowance(msg.sender,address(this));\r\n        uint balance1 = TokenB.allowance(msg.sender,address(this));\r\n        require(balance0 > 0 && balance1 >0,\"You have not approve both tokens\");\r\n        //\r\n        uint balanceAll0 = balance0 + TokenA.balanceOf(address(this));\r\n        uint balanceAll1 = balance1 + TokenB.balanceOf(address(this));\r\n        // balance\r\n        uint amount0 = balanceAll0.sub(_reserve0);\r\n        uint amount1 = balanceAll1.sub(_reserve1);\r\n        require(amount0 > 0 && amount1 >0,\"You need to put both tokens in the pool.\");\r\n        TokenA.transferFrom(msg.sender,address(this),balance0);\r\n        TokenB.transferFrom(msg.sender,address(this),balance1);\r\n        // \r\n        // gas  totalSupply  _mintFee \r\n        // totalSupply  pair \r\n        uint _totalSupply = TokenLP.totalSupply(); // gas savings, must be defined here since totalSupply can update in _mintFee\r\n        if (_totalSupply == 0) {\r\n            // kMINIMUM_LIQUIDITYsubliquidityuint\r\n            liquidity = Math.sqrt(amount0.mul(amount1)).sub(MINIMUM_LIQUIDITY);\r\n            //xy  k\r\n            x = amount0;\r\n            y = amount1;\r\n        } else {\r\n            // token\r\n            // \r\n            //_totalSupplyLP token,  *LP token  LP token burntokenA  LP tokenLP token * A  B\r\n            liquidity = Math.min(amount0.mul(_totalSupply) / _reserve0, amount1.mul(_totalSupply) / _reserve1);\r\n            x = TokenA.balanceOf(address(this));\r\n            y = TokenB.balanceOf(address(this));\r\n        }\r\n        require(liquidity > 0, 'UniswapV2: INSUFFICIENT_LIQUIDITY_MINTED');\r\n        // totokentotalsupply\r\n        // topairtotalSupply\r\n        TokenLP._mint(to, liquidity);\r\n        // \r\n        balance0 = TokenA.balanceOf(address(this));\r\n        balance1 = TokenB.balanceOf(address(this));\r\n        _update(balance0, balance1);\r\n        emit Mint(msg.sender, amount0, amount1);\r\n    }\r\n\r\n    function burn(address to) external returns (uint amount0, uint amount1) {\r\n        uint balance0 = TokenA.balanceOf(address(this));\r\n        uint balance1 = TokenB.balanceOf(address(this));\r\n        uint liquidity = TokenLP.balanceOf(msg.sender);\r\n\r\n        uint _totalSupply = TokenLP.totalSupply(); // gas savings, must be defined here since totalSupply can update in _mintFee\r\n        //  amount0/1\r\n        amount0 = liquidity.mul(balance0) / _totalSupply; // using balances ensures pro-rata distribution\r\n        amount1 = liquidity.mul(balance1) / _totalSupply; // using balances ensures pro-rata distribution\r\n        require(amount0 > 0 && amount1 > 0, 'UniswapV2: INSUFFICIENT_LIQUIDITY_BURNED');\r\n        TokenLP._burn(msg.sender, liquidity);\r\n        // _token0/1  to  amount0/1\r\n\r\n        TokenA.transfer(msg.sender,amount0);\r\n        TokenB.transfer(msg.sender,amount1);\r\n        // balance\r\n        balance0 = TokenA.balanceOf(address(this));\r\n        balance1 = TokenB.balanceOf(address(this));\r\n        //  reserve0, reserve1  \r\n        _update(balance0, balance1);\r\n        x = TokenA.balanceOf(address(this));\r\n        y = TokenB.balanceOf(address(this));\r\n        emit Burn(msg.sender, amount0, amount1, to);\r\n    }\r\n\r\n    function swap(uint amountIn,bool tokenType,uint minimumOut,address to) external returns(uint){   //0 is TokenA,1 is Token B\r\n        require(amountIn > 0 , \"You need to pay tokens.\");\r\n        require(tokenType == false && TokenA.allowance(msg.sender,address(this)) >= amountIn || tokenType == true && TokenB.allowance(msg.sender,address(this)) >= amountIn,\"You have not allow enough tokens to transfer.\");\r\n        (uint _reserve0, uint _reserve1) = getReserves(); // gas savings\r\n        require(tokenType == false && _reserve0 > minimumOut || tokenType == true && _reserve1 > minimumOut,\"Do not have enough tokens.\");\r\n        uint amountOut;\r\n        uint balance0 = _reserve0;\r\n        uint balance1 = _reserve1;\r\n\r\n        if(tokenType == false){\r\n            amountOut = _reserve1 - x*y/(_reserve0 + amountIn);\r\n            require(amountOut>minimumOut,\"Can not withdraw enough tokens.\");\r\n            TokenA.transferFrom(msg.sender,address(this),amountIn);\r\n            TokenB.transfer(to,amountOut);\r\n        }else{\r\n            amountOut = _reserve0 - x*y/(_reserve1 + amountIn);\r\n            require(amountOut>minimumOut,\"Can not withdraw enough tokens.\");\r\n            TokenB.transferFrom(msg.sender,address(this),amountIn);\r\n            TokenA.transfer(to,amountOut);\r\n        }\r\n\r\n        // \r\n        balance0 = TokenA.balanceOf(address(this));\r\n        balance1 = TokenB.balanceOf(address(this));\r\n        _update(balance0, balance1);\r\n\r\n        emit Swap(msg.sender, amountIn, tokenType, minimumOut, amountOut, to);\r\n        return amountOut;\r\n    }\r\n\r\n    function trySwap(uint amountIn,bool tokenType) view external returns(uint){ //0 is TokenA,1 is Token B\r\n        (uint _reserve0, uint _reserve1) = getReserves(); // gas savings\r\n        uint amountOut;\r\n        if(tokenType == false){\r\n            amountOut = _reserve1 - x*y/(_reserve0 + amountIn);\r\n        }else{\r\n            amountOut = _reserve0 - x*y/(_reserve1 + amountIn);\r\n        }\r\n        return amountOut;\r\n    }\r\n}\r\n",
  "sourcePath": "C:\\Users\\10201\\Desktop\\MySwap\\contracts\\Pool.sol",
  "compiler": {
    "name": "solc",
    "version": "0.8.10+commit.fc410830.Emscripten.clang"
  },
  "schemaVersion": "3.4.3",
  "updatedAt": "2023-04-07T13:27:02.139Z",
  "devdoc": {
    "kind": "dev",
    "methods": {},
    "version": 1
  },
  "userdoc": {
    "kind": "user",
    "methods": {},
    "version": 1
  }
}