{
  "contractName": "Stableswap",
  "abi": [
    {
      "inputs": [
        {
          "internalType": "address",
          "name": "_tokenA",
          "type": "address"
        },
        {
          "internalType": "address",
          "name": "_tokenB",
          "type": "address"
        },
        {
          "internalType": "address",
          "name": "_tokenLP",
          "type": "address"
        },
        {
          "internalType": "uint256",
          "name": "_A",
          "type": "uint256"
        }
      ],
      "stateMutability": "nonpayable",
      "type": "constructor"
    },
    {
      "anonymous": false,
      "inputs": [
        {
          "indexed": true,
          "internalType": "address",
          "name": "sender",
          "type": "address"
        },
        {
          "indexed": false,
          "internalType": "uint256",
          "name": "amount0",
          "type": "uint256"
        },
        {
          "indexed": false,
          "internalType": "uint256",
          "name": "amount1",
          "type": "uint256"
        }
      ],
      "name": "AddLiquidity",
      "type": "event"
    },
    {
      "anonymous": false,
      "inputs": [
        {
          "indexed": true,
          "internalType": "address",
          "name": "sender",
          "type": "address"
        },
        {
          "indexed": false,
          "internalType": "uint256",
          "name": "amount0",
          "type": "uint256"
        },
        {
          "indexed": false,
          "internalType": "uint256",
          "name": "amount1",
          "type": "uint256"
        },
        {
          "indexed": true,
          "internalType": "address",
          "name": "recipient",
          "type": "address"
        }
      ],
      "name": "RemoveLiquidity",
      "type": "event"
    },
    {
      "anonymous": false,
      "inputs": [
        {
          "indexed": false,
          "internalType": "uint256",
          "name": "reserve0",
          "type": "uint256"
        },
        {
          "indexed": false,
          "internalType": "uint256",
          "name": "reserve1",
          "type": "uint256"
        }
      ],
      "name": "Sync",
      "type": "event"
    },
    {
      "anonymous": false,
      "inputs": [
        {
          "indexed": true,
          "internalType": "address",
          "name": "sender",
          "type": "address"
        },
        {
          "indexed": false,
          "internalType": "uint256",
          "name": "sold_id",
          "type": "uint256"
        },
        {
          "indexed": false,
          "internalType": "uint256",
          "name": "amountIn",
          "type": "uint256"
        },
        {
          "indexed": false,
          "internalType": "uint256",
          "name": "bought_id",
          "type": "uint256"
        },
        {
          "indexed": false,
          "internalType": "uint256",
          "name": "amountOut",
          "type": "uint256"
        },
        {
          "indexed": false,
          "internalType": "address",
          "name": "recipient",
          "type": "address"
        }
      ],
      "name": "TokenExchange",
      "type": "event"
    },
    {
      "inputs": [],
      "name": "MINIMUM_LIQUIDITY",
      "outputs": [
        {
          "internalType": "uint256",
          "name": "",
          "type": "uint256"
        }
      ],
      "stateMutability": "view",
      "type": "function"
    },
    {
      "inputs": [
        {
          "internalType": "uint256",
          "name": "_reserve0",
          "type": "uint256"
        },
        {
          "internalType": "uint256",
          "name": "_reserve1",
          "type": "uint256"
        }
      ],
      "name": "_xp_mem",
      "outputs": [
        {
          "internalType": "uint256[]",
          "name": "result",
          "type": "uint256[]"
        }
      ],
      "stateMutability": "view",
      "type": "function"
    },
    {
      "inputs": [
        {
          "internalType": "uint256[]",
          "name": "_xp",
          "type": "uint256[]"
        },
        {
          "internalType": "uint256",
          "name": "_amp",
          "type": "uint256"
        }
      ],
      "name": "_get_D",
      "outputs": [
        {
          "internalType": "uint256",
          "name": "",
          "type": "uint256"
        }
      ],
      "stateMutability": "pure",
      "type": "function"
    },
    {
      "inputs": [],
      "name": "getReserves",
      "outputs": [
        {
          "internalType": "uint256",
          "name": "_reserve0",
          "type": "uint256"
        },
        {
          "internalType": "uint256",
          "name": "_reserve1",
          "type": "uint256"
        }
      ],
      "stateMutability": "view",
      "type": "function"
    },
    {
      "inputs": [
        {
          "internalType": "address",
          "name": "to",
          "type": "address"
        }
      ],
      "name": "addLiquidity",
      "outputs": [
        {
          "internalType": "uint256",
          "name": "",
          "type": "uint256"
        }
      ],
      "stateMutability": "nonpayable",
      "type": "function"
    },
    {
      "inputs": [
        {
          "internalType": "address",
          "name": "to",
          "type": "address"
        }
      ],
      "name": "removeLiquidity",
      "outputs": [
        {
          "internalType": "uint256",
          "name": "amount0",
          "type": "uint256"
        },
        {
          "internalType": "uint256",
          "name": "amount1",
          "type": "uint256"
        }
      ],
      "stateMutability": "nonpayable",
      "type": "function"
    },
    {
      "inputs": [
        {
          "internalType": "uint256",
          "name": "i",
          "type": "uint256"
        },
        {
          "internalType": "uint256",
          "name": "j",
          "type": "uint256"
        },
        {
          "internalType": "uint256",
          "name": "x",
          "type": "uint256"
        },
        {
          "internalType": "uint256[]",
          "name": "_xp",
          "type": "uint256[]"
        }
      ],
      "name": "_get_y",
      "outputs": [
        {
          "internalType": "uint256",
          "name": "",
          "type": "uint256"
        }
      ],
      "stateMutability": "view",
      "type": "function"
    },
    {
      "inputs": [
        {
          "internalType": "uint256",
          "name": "i",
          "type": "uint256"
        },
        {
          "internalType": "uint256",
          "name": "j",
          "type": "uint256"
        },
        {
          "internalType": "uint256",
          "name": "_dx",
          "type": "uint256"
        },
        {
          "internalType": "uint256",
          "name": "_min_dy",
          "type": "uint256"
        },
        {
          "internalType": "address",
          "name": "to",
          "type": "address"
        }
      ],
      "name": "exchange",
      "outputs": [
        {
          "internalType": "uint256",
          "name": "",
          "type": "uint256"
        }
      ],
      "stateMutability": "nonpayable",
      "type": "function"
    }
  ],
  "bytecode": "0x60806040526127106000556127106002553480156200001d57600080fd5b5060405162003104380380620031048339818101604052810190620000439190620001bc565b83600360006101000a81548173ffffffffffffffffffffffffffffffffffffffff021916908373ffffffffffffffffffffffffffffffffffffffff16021790555082600460006101000a81548173ffffffffffffffffffffffffffffffffffffffff021916908373ffffffffffffffffffffffffffffffffffffffff16021790555081600560006101000a81548173ffffffffffffffffffffffffffffffffffffffff021916908373ffffffffffffffffffffffffffffffffffffffff16021790555080600181905550505050506200022e565b600080fd5b600073ffffffffffffffffffffffffffffffffffffffff82169050919050565b600062000149826200011c565b9050919050565b6200015b816200013c565b81146200016757600080fd5b50565b6000815190506200017b8162000150565b92915050565b6000819050919050565b620001968162000181565b8114620001a257600080fd5b50565b600081519050620001b6816200018b565b92915050565b60008060008060808587031215620001d957620001d862000117565b5b6000620001e9878288016200016a565b9450506020620001fc878288016200016a565b93505060406200020f878288016200016a565b92505060606200022287828801620001a5565b91505092959194509250565b612ec6806200023e6000396000f3fe608060405234801561001057600080fd5b50600436106100885760003560e01c8063ba9a7a561161005b578063ba9a7a561461013c578063d56ef1291461015a578063d798f86e1461018a578063e3412e3d146101bb57610088565b80630261ac611461008d5780630902f1ac146100bd57806389640579146100dc578063a64833a01461010c575b600080fd5b6100a760048036038101906100a2919061206c565b6101eb565b6040516100b4919061216a565b60405180910390f35b6100c56102b5565b6040516100d392919061219b565b60405180910390f35b6100f660048036038101906100f1919061231d565b6102c6565b6040516101039190612379565b60405180910390f35b610126600480360381019061012191906123f2565b61056b565b6040516101339190612379565b60405180910390f35b610144610cc1565b6040516101519190612379565b60405180910390f35b610174600480360381019061016f919061246d565b610cc6565b6040516101819190612379565b60405180910390f35b6101a4600480360381019061019f91906124f0565b611040565b6040516101b292919061219b565b60405180910390f35b6101d560048036038101906101d091906124f0565b6116ce565b6040516101e29190612379565b60405180910390f35b6060600267ffffffffffffffff811115610208576102076121da565b5b6040519080825280602002602001820160405280156102365781602001602082028036833780820191505090505b5090506002548360005461024a919061254c565b61025491906125d5565b8160008151811061026857610267612606565b5b60200260200101818152505060025482600054610285919061254c565b61028f91906125d5565b816001815181106102a3576102a2612606565b5b60200260200101818152505092915050565b600080600654915060075490509091565b600080600090506000805b855181101561031c576103078682815181106102f0576102ef612606565b5b602002602001015184611f0690919063ffffffff16565b9250808061031490612635565b9150506102d1565b50600082141561033157600092505050610565565b6000829050600061034c600287611f3290919063ffffffff16565b905060005b60ff81101561052957600083905060005b89518110156103d2576103bd61039c60028c848151811061038657610385612606565b5b6020026020010151611f3290919063ffffffff16565b6103af8785611f3290919063ffffffff16565b611f7390919063ffffffff16565b915080806103ca90612635565b915050610362565b508394506104b561044a610403836103f560016002611f0690919063ffffffff16565b611f3290919063ffffffff16565b61043c606461042e8961042060648b611f8e90919063ffffffff16565b611f3290919063ffffffff16565b611f7390919063ffffffff16565b611f0690919063ffffffff16565b6104a786610499610465600287611f3290919063ffffffff16565b61048b606461047d8e8c611f3290919063ffffffff16565b611f7390919063ffffffff16565b611f0690919063ffffffff16565b611f3290919063ffffffff16565b611f7390919063ffffffff16565b9350848411156104ec5760016104d48686611f8e90919063ffffffff16565b116104e757839650505050505050610565565b610515565b60016105018587611f8e90919063ffffffff16565b1161051457839650505050505050610565565b5b50808061052190612635565b915050610351565b506040517f08c379a000000000000000000000000000000000000000000000000000000000815260040161055c906126db565b60405180910390fd5b92915050565b60008084116105af576040517f08c379a00000000000000000000000000000000000000000000000000000000081526004016105a690612747565b60405180910390fd5b8486141580156105cc5750600085101580156105cb5750600285105b5b80156105e55750600086101580156105e45750600286105b5b6105ee57600080fd5b83600360009054906101000a900473ffffffffffffffffffffffffffffffffffffffff1673ffffffffffffffffffffffffffffffffffffffff1663dd62ed3e33306040518363ffffffff1660e01b815260040161064c929190612776565b602060405180830381865afa158015610669573d6000803e3d6000fd5b505050506040513d601f19601f8201168201806040525081019061068d91906127b4565b101580610737575083600460009054906101000a900473ffffffffffffffffffffffffffffffffffffffff1673ffffffffffffffffffffffffffffffffffffffff1663dd62ed3e33306040518363ffffffff1660e01b81526004016106f3929190612776565b602060405180830381865afa158015610710573d6000803e3d6000fd5b505050506040513d601f19601f8201168201806040525081019061073491906127b4565b10155b610776576040517f08c379a000000000000000000000000000000000000000000000000000000000815260040161076d90612853565b60405180910390fd5b6000806107816102b5565b915091508482118061079257508481115b6107d1576040517f08c379a00000000000000000000000000000000000000000000000000000000081526004016107c8906128bf565b60405180910390fd5b60006107dd83836101eb565b9050600087828b815181106107f5576107f4612606565b5b602002602001015161080791906128df565b905060006108178b8b8486610cc6565b905060008054600254600184878f8151811061083657610835612606565b5b60200260200101516108489190612935565b6108529190612935565b61085c919061254c565b61086691906125d5565b90508881116108aa576040517f08c379a00000000000000000000000000000000000000000000000000000000081526004016108a1906129b5565b60405180910390fd5b60008c1480156108ba575060018b145b15610a0857600360009054906101000a900473ffffffffffffffffffffffffffffffffffffffff1673ffffffffffffffffffffffffffffffffffffffff166323b872dd33308d6040518463ffffffff1660e01b815260040161091e939291906129d5565b6020604051808303816000875af115801561093d573d6000803e3d6000fd5b505050506040513d601f19601f820116820180604052508101906109619190612a44565b50600460009054906101000a900473ffffffffffffffffffffffffffffffffffffffff1673ffffffffffffffffffffffffffffffffffffffff1663a9059cbb89836040518363ffffffff1660e01b81526004016109bf929190612a71565b6020604051808303816000875af11580156109de573d6000803e3d6000fd5b505050506040513d601f19601f82011682018060405250810190610a029190612a44565b50610b63565b60018c148015610a18575060008b145b15610b6257600460009054906101000a900473ffffffffffffffffffffffffffffffffffffffff1673ffffffffffffffffffffffffffffffffffffffff166323b872dd33308d6040518463ffffffff1660e01b8152600401610a7c939291906129d5565b6020604051808303816000875af1158015610a9b573d6000803e3d6000fd5b505050506040513d601f19601f82011682018060405250810190610abf9190612a44565b50600360009054906101000a900473ffffffffffffffffffffffffffffffffffffffff1673ffffffffffffffffffffffffffffffffffffffff1663a9059cbb89836040518363ffffffff1660e01b8152600401610b1d929190612a71565b6020604051808303816000875af1158015610b3c573d6000803e3d6000fd5b505050506040513d601f19601f82011682018060405250810190610b609190612a44565b505b5b6000600360009054906101000a900473ffffffffffffffffffffffffffffffffffffffff1673ffffffffffffffffffffffffffffffffffffffff166370a08231306040518263ffffffff1660e01b8152600401610bc09190612a9a565b602060405180830381865afa158015610bdd573d6000803e3d6000fd5b505050506040513d601f19601f82011682018060405250810190610c0191906127b4565b90506000600460009054906101000a900473ffffffffffffffffffffffffffffffffffffffff1673ffffffffffffffffffffffffffffffffffffffff166370a08231306040518263ffffffff1660e01b8152600401610c609190612a9a565b602060405180830381865afa158015610c7d573d6000803e3d6000fd5b505050506040513d601f19601f82011682018060405250810190610ca191906127b4565b9050610cad8282611fb5565b829850505050505050505095945050505050565b600081565b600083851415610d0b576040517f08c379a0000000000000000000000000000000000000000000000000000000008152600401610d0290612b01565b60405180910390fd5b60028410610d4e576040517f08c379a0000000000000000000000000000000000000000000000000000000008152600401610d4590612b6d565b60405180910390fd5b60028510610d91576040517f08c379a0000000000000000000000000000000000000000000000000000000008152600401610d8890612bd9565b60405180910390fd5b600060015490506000610da484836102c6565b90506000610dbc600284611f3290919063ffffffff16565b905060008290506000806000805b6002811015610e75578c811415610de3578a9250610e12565b8b8114610e0c57898181518110610dfd57610dfc612606565b5b60200260200101519250610e11565b610e62565b5b610e258385611f0690919063ffffffff16565b9350610e5f610e3e600285611f3290919063ffffffff16565b610e518988611f3290919063ffffffff16565b611f7390919063ffffffff16565b94505b8080610e6d90612635565b915050610dca565b50610ec1610e8d600287611f3290919063ffffffff16565b610eb36064610ea58a89611f3290919063ffffffff16565b611f3290919063ffffffff16565b611f7390919063ffffffff16565b93506000610efd610eee87610ee060648b611f3290919063ffffffff16565b611f7390919063ffffffff16565b85611f0690919063ffffffff16565b9050600087905060005b60ff811015610ffc57819350610f81610f4e8a610f4086610f32600288611f3290919063ffffffff16565b611f0690919063ffffffff16565b611f8e90919063ffffffff16565b610f7389610f658687611f3290919063ffffffff16565b611f0690919063ffffffff16565b611f7390919063ffffffff16565b915083821115610fbc576001610fa08584611f8e90919063ffffffff16565b11610fb757819a5050505050505050505050611038565b610fe9565b6001610fd18386611f8e90919063ffffffff16565b11610fe857819a5050505050505050505050611038565b5b8080610ff490612635565b915050610f07565b506040517f08c379a000000000000000000000000000000000000000000000000000000000815260040161102f90612c45565b60405180910390fd5b949350505050565b6000806000600360009054906101000a900473ffffffffffffffffffffffffffffffffffffffff1673ffffffffffffffffffffffffffffffffffffffff166370a08231306040518263ffffffff1660e01b81526004016110a09190612a9a565b602060405180830381865afa1580156110bd573d6000803e3d6000fd5b505050506040513d601f19601f820116820180604052508101906110e191906127b4565b90506000600460009054906101000a900473ffffffffffffffffffffffffffffffffffffffff1673ffffffffffffffffffffffffffffffffffffffff166370a08231306040518263ffffffff1660e01b81526004016111409190612a9a565b602060405180830381865afa15801561115d573d6000803e3d6000fd5b505050506040513d601f19601f8201168201806040525081019061118191906127b4565b90506000600560009054906101000a900473ffffffffffffffffffffffffffffffffffffffff1673ffffffffffffffffffffffffffffffffffffffff166370a08231336040518263ffffffff1660e01b81526004016111e09190612a9a565b602060405180830381865afa1580156111fd573d6000803e3d6000fd5b505050506040513d601f19601f8201168201806040525081019061122191906127b4565b90506000600560009054906101000a900473ffffffffffffffffffffffffffffffffffffffff1673ffffffffffffffffffffffffffffffffffffffff166318160ddd6040518163ffffffff1660e01b8152600401602060405180830381865afa158015611292573d6000803e3d6000fd5b505050506040513d601f19601f820116820180604052508101906112b691906127b4565b9050806112cc8584611f3290919063ffffffff16565b6112d691906125d5565b9550806112ec8484611f3290919063ffffffff16565b6112f691906125d5565b94506000861180156113085750600085115b611347576040517f08c379a000000000000000000000000000000000000000000000000000000000815260040161133e90612cd7565b60405180910390fd5b600560009054906101000a900473ffffffffffffffffffffffffffffffffffffffff1673ffffffffffffffffffffffffffffffffffffffff16636161eb1833846040518363ffffffff1660e01b81526004016113a4929190612a71565b600060405180830381600087803b1580156113be57600080fd5b505af11580156113d2573d6000803e3d6000fd5b50505050600360009054906101000a900473ffffffffffffffffffffffffffffffffffffffff1673ffffffffffffffffffffffffffffffffffffffff1663a9059cbb33886040518363ffffffff1660e01b8152600401611433929190612a71565b6020604051808303816000875af1158015611452573d6000803e3d6000fd5b505050506040513d601f19601f820116820180604052508101906114769190612a44565b50600460009054906101000a900473ffffffffffffffffffffffffffffffffffffffff1673ffffffffffffffffffffffffffffffffffffffff1663a9059cbb33876040518363ffffffff1660e01b81526004016114d4929190612a71565b6020604051808303816000875af11580156114f3573d6000803e3d6000fd5b505050506040513d601f19601f820116820180604052508101906115179190612a44565b50600360009054906101000a900473ffffffffffffffffffffffffffffffffffffffff1673ffffffffffffffffffffffffffffffffffffffff166370a08231306040518263ffffffff1660e01b81526004016115739190612a9a565b602060405180830381865afa158015611590573d6000803e3d6000fd5b505050506040513d601f19601f820116820180604052508101906115b491906127b4565b9350600460009054906101000a900473ffffffffffffffffffffffffffffffffffffffff1673ffffffffffffffffffffffffffffffffffffffff166370a08231306040518263ffffffff1660e01b81526004016116119190612a9a565b602060405180830381865afa15801561162e573d6000803e3d6000fd5b505050506040513d601f19601f8201168201806040525081019061165291906127b4565b925061165e8484611fb5565b8673ffffffffffffffffffffffffffffffffffffffff163373ffffffffffffffffffffffffffffffffffffffff167f3d58404efba0e9fa8c42b15fd0c0aee3cc2ac3a59477f4e392bff292d497787988886040516116bd92919061219b565b60405180910390a350505050915091565b60008060006116db6102b5565b915091506000600360009054906101000a900473ffffffffffffffffffffffffffffffffffffffff1673ffffffffffffffffffffffffffffffffffffffff1663dd62ed3e33306040518363ffffffff1660e01b815260040161173e929190612776565b602060405180830381865afa15801561175b573d6000803e3d6000fd5b505050506040513d601f19601f8201168201806040525081019061177f91906127b4565b90506000600460009054906101000a900473ffffffffffffffffffffffffffffffffffffffff1673ffffffffffffffffffffffffffffffffffffffff1663dd62ed3e33306040518363ffffffff1660e01b81526004016117e0929190612776565b602060405180830381865afa1580156117fd573d6000803e3d6000fd5b505050506040513d601f19601f8201168201806040525081019061182191906127b4565b9050600080831180156118345750600082115b611873576040517f08c379a000000000000000000000000000000000000000000000000000000000815260040161186a90612d43565b60405180910390fd5b6000600360009054906101000a900473ffffffffffffffffffffffffffffffffffffffff1673ffffffffffffffffffffffffffffffffffffffff166370a08231306040518263ffffffff1660e01b81526004016118d09190612a9a565b602060405180830381865afa1580156118ed573d6000803e3d6000fd5b505050506040513d601f19601f8201168201806040525081019061191191906127b4565b8461191c91906128df565b90506000600460009054906101000a900473ffffffffffffffffffffffffffffffffffffffff1673ffffffffffffffffffffffffffffffffffffffff166370a08231306040518263ffffffff1660e01b815260040161197b9190612a9a565b602060405180830381865afa158015611998573d6000803e3d6000fd5b505050506040513d601f19601f820116820180604052508101906119bc91906127b4565b846119c791906128df565b905060006119de8884611f8e90919063ffffffff16565b905060006119f58884611f8e90919063ffffffff16565b9050600082118015611a075750600081115b611a46576040517f08c379a0000000000000000000000000000000000000000000000000000000008152600401611a3d90612dd5565b60405180910390fd5b600360009054906101000a900473ffffffffffffffffffffffffffffffffffffffff1673ffffffffffffffffffffffffffffffffffffffff166323b872dd33308a6040518463ffffffff1660e01b8152600401611aa5939291906129d5565b6020604051808303816000875af1158015611ac4573d6000803e3d6000fd5b505050506040513d601f19601f82011682018060405250810190611ae89190612a44565b50600460009054906101000a900473ffffffffffffffffffffffffffffffffffffffff1673ffffffffffffffffffffffffffffffffffffffff166323b872dd3330896040518463ffffffff1660e01b8152600401611b48939291906129d5565b6020604051808303816000875af1158015611b67573d6000803e3d6000fd5b505050506040513d601f19601f82011682018060405250810190611b8b9190612a44565b50600360009054906101000a900473ffffffffffffffffffffffffffffffffffffffff1673ffffffffffffffffffffffffffffffffffffffff166370a08231306040518263ffffffff1660e01b8152600401611be79190612a9a565b602060405180830381865afa158015611c04573d6000803e3d6000fd5b505050506040513d601f19601f82011682018060405250810190611c2891906127b4565b9650600460009054906101000a900473ffffffffffffffffffffffffffffffffffffffff1673ffffffffffffffffffffffffffffffffffffffff166370a08231306040518263ffffffff1660e01b8152600401611c859190612a9a565b602060405180830381865afa158015611ca2573d6000803e3d6000fd5b505050506040513d601f19601f82011682018060405250810190611cc691906127b4565b9550611cd28787611fb5565b611cda6102b5565b809950819a5050506000611cf18a8a600154612004565b90506000611d028686600154612004565b90506000600560009054906101000a900473ffffffffffffffffffffffffffffffffffffffff1673ffffffffffffffffffffffffffffffffffffffff166318160ddd6040518163ffffffff1660e01b8152600401602060405180830381865afa158015611d73573d6000803e3d6000fd5b505050506040513d601f19601f82011682018060405250810190611d9791906127b4565b90506000811415611daa57819750611dcf565b828383611db79190612935565b82611dc2919061254c565b611dcc91906125d5565b97505b6000881015611e13576040517f08c379a0000000000000000000000000000000000000000000000000000000008152600401611e0a90612e41565b60405180910390fd5b600560009054906101000a900473ffffffffffffffffffffffffffffffffffffffff1673ffffffffffffffffffffffffffffffffffffffff16634e6ec2478f8a6040518363ffffffff1660e01b8152600401611e70929190612a71565b600060405180830381600087803b158015611e8a57600080fd5b505af1158015611e9e573d6000803e3d6000fd5b505050503373ffffffffffffffffffffffffffffffffffffffff167f06239653922ac7bea6aa2b19dc486b9361821d37712eb796adfd38d81de278ca8686604051611eea92919061219b565b60405180910390a2879c50505050505050505050505050919050565b6000808284611f1591906128df565b905083811015611f2857611f27612e61565b5b8091505092915050565b6000808284611f41919061254c565b90506000841480611f5c5750828482611f5a91906125d5565b145b611f6957611f68612e61565b5b8091505092915050565b6000808284611f8291906125d5565b90508091505092915050565b600082821115611fa157611fa0612e61565b5b8183611fad9190612935565b905092915050565b81600681905550806007819055507fcf2aa50876cdfbb541206f89af0ee78d44a2abf8d328e37fa4917f982149848a600654600754604051611ff892919061219b565b60405180910390a15050565b600061201961201385856101eb565b836102c6565b90509392505050565b6000604051905090565b600080fd5b600080fd5b6000819050919050565b61204981612036565b811461205457600080fd5b50565b60008135905061206681612040565b92915050565b600080604083850312156120835761208261202c565b5b600061209185828601612057565b92505060206120a285828601612057565b9150509250929050565b600081519050919050565b600082825260208201905092915050565b6000819050602082019050919050565b6120e181612036565b82525050565b60006120f383836120d8565b60208301905092915050565b6000602082019050919050565b6000612117826120ac565b61212181856120b7565b935061212c836120c8565b8060005b8381101561215d57815161214488826120e7565b975061214f836120ff565b925050600181019050612130565b5085935050505092915050565b60006020820190508181036000830152612184818461210c565b905092915050565b61219581612036565b82525050565b60006040820190506121b0600083018561218c565b6121bd602083018461218c565b9392505050565b600080fd5b6000601f19601f8301169050919050565b7f4e487b7100000000000000000000000000000000000000000000000000000000600052604160045260246000fd5b612212826121c9565b810181811067ffffffffffffffff82111715612231576122306121da565b5b80604052505050565b6000612244612022565b90506122508282612209565b919050565b600067ffffffffffffffff8211156122705761226f6121da565b5b602082029050602081019050919050565b600080fd5b600061229961229484612255565b61223a565b905080838252602082019050602084028301858111156122bc576122bb612281565b5b835b818110156122e557806122d18882612057565b8452602084019350506020810190506122be565b5050509392505050565b600082601f830112612304576123036121c4565b5b8135612314848260208601612286565b91505092915050565b600080604083850312156123345761233361202c565b5b600083013567ffffffffffffffff81111561235257612351612031565b5b61235e858286016122ef565b925050602061236f85828601612057565b9150509250929050565b600060208201905061238e600083018461218c565b92915050565b600073ffffffffffffffffffffffffffffffffffffffff82169050919050565b60006123bf82612394565b9050919050565b6123cf816123b4565b81146123da57600080fd5b50565b6000813590506123ec816123c6565b92915050565b600080600080600060a0868803121561240e5761240d61202c565b5b600061241c88828901612057565b955050602061242d88828901612057565b945050604061243e88828901612057565b935050606061244f88828901612057565b9250506080612460888289016123dd565b9150509295509295909350565b600080600080608085870312156124875761248661202c565b5b600061249587828801612057565b94505060206124a687828801612057565b93505060406124b787828801612057565b925050606085013567ffffffffffffffff8111156124d8576124d7612031565b5b6124e4878288016122ef565b91505092959194509250565b6000602082840312156125065761250561202c565b5b6000612514848285016123dd565b91505092915050565b7f4e487b7100000000000000000000000000000000000000000000000000000000600052601160045260246000fd5b600061255782612036565b915061256283612036565b9250817fffffffffffffffffffffffffffffffffffffffffffffffffffffffffffffffff048311821515161561259b5761259a61251d565b5b828202905092915050565b7f4e487b7100000000000000000000000000000000000000000000000000000000600052601260045260246000fd5b60006125e082612036565b91506125eb83612036565b9250826125fb576125fa6125a6565b5b828204905092915050565b7f4e487b7100000000000000000000000000000000000000000000000000000000600052603260045260246000fd5b600061264082612036565b91507fffffffffffffffffffffffffffffffffffffffffffffffffffffffffffffffff8214156126735761267261251d565b5b600182019050919050565b600082825260208201905092915050565b7f4420646976657267656400000000000000000000000000000000000000000000600082015250565b60006126c5600a8361267e565b91506126d08261268f565b602082019050919050565b600060208201905081810360008301526126f4816126b8565b9050919050565b7f596f75206e65656420746f2070617920746f6b656e7300000000000000000000600082015250565b600061273160168361267e565b915061273c826126fb565b602082019050919050565b6000602082019050818103600083015261276081612724565b9050919050565b612770816123b4565b82525050565b600060408201905061278b6000830185612767565b6127986020830184612767565b9392505050565b6000815190506127ae81612040565b92915050565b6000602082840312156127ca576127c961202c565b5b60006127d88482850161279f565b91505092915050565b7f596f752068617665206e6f7420616c6c6f7720656e6f75676820746f6b656e7360008201527f20746f207472616e736665720000000000000000000000000000000000000000602082015250565b600061283d602c8361267e565b9150612848826127e1565b604082019050919050565b6000602082019050818103600083015261286c81612830565b9050919050565b7f446f6e2774206861766520656e6f75676820746f6b656e730000000000000000600082015250565b60006128a960188361267e565b91506128b482612873565b602082019050919050565b600060208201905081810360008301526128d88161289c565b9050919050565b60006128ea82612036565b91506128f583612036565b9250827fffffffffffffffffffffffffffffffffffffffffffffffffffffffffffffffff0382111561292a5761292961251d565b5b828201905092915050565b600061294082612036565b915061294b83612036565b92508282101561295e5761295d61251d565b5b828203905092915050565b7f43616e206e6f7420776974686472617720656e6f75676820746f6b656e730000600082015250565b600061299f601e8361267e565b91506129aa82612969565b602082019050919050565b600060208201905081810360008301526129ce81612992565b9050919050565b60006060820190506129ea6000830186612767565b6129f76020830185612767565b612a04604083018461218c565b949350505050565b60008115159050919050565b612a2181612a0c565b8114612a2c57600080fd5b50565b600081519050612a3e81612a18565b92915050565b600060208284031215612a5a57612a5961202c565b5b6000612a6884828501612a2f565b91505092915050565b6000604082019050612a866000830185612767565b612a93602083018461218c565b9392505050565b6000602082019050612aaf6000830184612767565b92915050565b7f53616d6520636f696e0000000000000000000000000000000000000000000000600082015250565b6000612aeb60098361267e565b9150612af682612ab5565b602082019050919050565b60006020820190508181036000830152612b1a81612ade565b9050919050565b7f6a2061626f7665204e0000000000000000000000000000000000000000000000600082015250565b6000612b5760098361267e565b9150612b6282612b21565b602082019050919050565b60006020820190508181036000830152612b8681612b4a565b9050919050565b7f692061626f7665204e0000000000000000000000000000000000000000000000600082015250565b6000612bc360098361267e565b9150612bce82612b8d565b602082019050919050565b60006020820190508181036000830152612bf281612bb6565b9050919050565b7f4661696c656420746f20636f6e76657267650000000000000000000000000000600082015250565b6000612c2f60128361267e565b9150612c3a82612bf9565b602082019050919050565b60006020820190508181036000830152612c5e81612c22565b9050919050565b7f437572766520537761703a20494e53554646494349454e545f4c49515549444960008201527f54595f4255524e45440000000000000000000000000000000000000000000000602082015250565b6000612cc160298361267e565b9150612ccc82612c65565b604082019050919050565b60006020820190508181036000830152612cf081612cb4565b9050919050565b7f596f752068617665206e6f7420617070726f766520626f746820746f6b656e73600082015250565b6000612d2d60208361267e565b9150612d3882612cf7565b602082019050919050565b60006020820190508181036000830152612d5c81612d20565b9050919050565b7f596f75206e65656420746f2070757420626f746820746f6b656e7320696e207460008201527f686520706f6f6c2e000000000000000000000000000000000000000000000000602082015250565b6000612dbf60288361267e565b9150612dca82612d63565b604082019050919050565b60006020820190508181036000830152612dee81612db2565b9050919050565b7f536c697070616765207363726577656420796f75000000000000000000000000600082015250565b6000612e2b60148361267e565b9150612e3682612df5565b602082019050919050565b60006020820190508181036000830152612e5a81612e1e565b9050919050565b7f4e487b7100000000000000000000000000000000000000000000000000000000600052600160045260246000fdfea2646970667358221220a930d15763cd28ae843bcf1f3f97a44f3b1e0f5927f973ce82940b700a893b9d64736f6c634300080a0033",
  "immutableReferences": {},
  "source": "// SPDX-License-Identifier: MIT\r\npragma solidity ^0.8.0;\r\nimport './ERC20.sol';\r\nimport './Math.sol';\r\nimport './SafeMath.sol';\r\n\r\ncontract Stableswap{\r\n    using SafeMath for uint;\r\n    using Math for uint;\r\n    uint256 constant N=2;\r\n    uint256 RATES=10000;\r\n    uint256 amp;\r\n    //uint256 FEE_DENOMINATOR=10**10;\r\n    uint256 PRECISION=10**4;\r\n    uint256 constant A_PRECISION=100;\r\n\r\n    ERC20 tokenA;\r\n    ERC20 tokenB;\r\n    ERC20 tokenLP;\r\n\r\n    uint256 private reserve0;\r\n    uint256 private reserve1;\r\n    uint256 public constant MINIMUM_LIQUIDITY=0;\r\n\r\n    constructor(address _tokenA,address _tokenB,address _tokenLP,uint256 _A){\r\n        tokenA=ERC20(_tokenA);\r\n        tokenB=ERC20(_tokenB);\r\n        tokenLP=ERC20(_tokenLP);\r\n        //initial_A= _A*A_PRECISION;\r\n        //future_A= _A*A_PRECISION;\r\n        amp=_A;\r\n\r\n    }\r\n    event AddLiquidity(address indexed sender,uint256 amount0,uint256 amount1);\r\n    event RemoveLiquidity(address indexed sender,uint256 amount0,uint256 amount1,address indexed recipient);\r\n    event TokenExchange(address indexed sender,uint256 sold_id,uint256 amountIn,uint256 bought_id,uint256 amountOut,address recipient);\r\n    event Sync(uint256 reserve0, uint256 reserve1);\r\n\r\n\r\n    function _xp_mem(uint256 _reserve0, uint256 _reserve1) public view returns(uint256[] memory result) {\r\n        result = new uint256[](2);\r\n        result[0] = RATES * _reserve0 / PRECISION;\r\n        result[1] = RATES * _reserve1 / PRECISION;\r\n        return result;\r\n    }\r\n\r\n    function _get_D(uint256[] memory _xp, uint256 _amp) public pure returns (uint256) {\r\n        uint256 S = 0;\r\n        uint256 Dprev = 0;\r\n\r\n        for (uint256 i = 0; i < _xp.length; i++) {\r\n            S = S.add(_xp[i]);\r\n        }\r\n        if (S == 0) {\r\n            return 0;\r\n        }\r\n\r\n        uint256 D = S;\r\n        uint256 Ann = _amp.mul(N);\r\n        for (uint256 i = 0; i < 255; i++) {\r\n            uint256 D_P = D;\r\n            for (uint256 j = 0; j < _xp.length; j++) {\r\n                D_P = D_P.mul(D).div(_xp[j].mul(N)); // If division by 0, this will be borked: only withdrawal will work. And that is good\r\n            }\r\n            Dprev = D;\r\n            D = Ann.mul(S).div(A_PRECISION).add(D_P.mul(N)).mul(D).div((Ann.sub(A_PRECISION)).mul(D).div(A_PRECISION).add((N.add(1)).mul(D_P)));\r\n            // Equality with the precision of 1\r\n            if (D > Dprev) {\r\n                if (D.sub(Dprev) <= 1) {\r\n                    return D;\r\n                }\r\n            } else {\r\n                if (Dprev.sub(D) <= 1) {\r\n                    return D;\r\n                }\r\n            }\r\n        }\r\n        // convergence typically occurs in 4 rounds or less, this should be unreachable!\r\n        // if it does happen the pool is borked and LPs can withdraw via `remove_liquidity`\r\n        revert(\"D diverged\");\r\n    }\r\n\r\n\r\n    function _get_D_mem(uint256 _reserve0,uint256 _reserve1,uint _amp)internal view returns(uint256 ){\r\n        return _get_D(_xp_mem(_reserve0,_reserve1),_amp);\r\n    }\r\n\r\n    function getReserves()public view returns(uint _reserve0, uint _reserve1){\r\n        _reserve0 = reserve0;\r\n        _reserve1 = reserve1;\r\n    }\r\n    function _update(uint balance0, uint balance1) private {\r\n        // reserve\r\n        reserve0 = balance0;\r\n        reserve1 = balance1;\r\n        emit Sync(reserve0, reserve1);\r\n    }\r\n\r\n    function addLiquidity(address to)external returns(uint256){\r\n        (uint _reserve0, uint _reserve1) = getReserves(); // gas savings\r\n        // token\r\n        uint balance0 = tokenA.allowance(msg.sender,address(this));\r\n        uint balance1 = tokenB.allowance(msg.sender,address(this));\r\n        uint256 mint_amount;\r\n        require(balance0 > 0 && balance1 >0,\"You have not approve both tokens\");\r\n\r\n        //\r\n        uint balanceAll0 = balance0 + tokenA.balanceOf(address(this));\r\n        uint balanceAll1 = balance1 + tokenB.balanceOf(address(this));\r\n        // balance\r\n        uint amount0 = balanceAll0.sub(_reserve0);\r\n        uint amount1 = balanceAll1.sub(_reserve1);\r\n        require(amount0 > 0 && amount1 >0,\"You need to put both tokens in the pool.\");\r\n        tokenA.transferFrom(msg.sender,address(this),balance0);\r\n        tokenB.transferFrom(msg.sender,address(this),balance1);\r\n\r\n        balance0=tokenA.balanceOf(address(this));\r\n        balance1=tokenB.balanceOf(address(this));\r\n        _update(balance0,balance1);\r\n        (_reserve0,_reserve1) = getReserves();\r\n        //\r\n        uint256 D0=_get_D_mem(_reserve0,_reserve1,amp);\r\n        uint256 D1=_get_D_mem(balanceAll0,balanceAll1,amp);\r\n        uint256 _totalSupply=tokenLP.totalSupply();\r\n        if(_totalSupply==0){\r\n            mint_amount=D1;\r\n        }else{\r\n            mint_amount=_totalSupply*(D1-D0)/D0;\r\n        }\r\n        require(mint_amount>=MINIMUM_LIQUIDITY,\"Slippage screwed you\");\r\n        //Mint LP tokens\r\n        tokenLP._mint(to,mint_amount);\r\n\r\n        emit AddLiquidity(msg.sender,amount0,amount1);\r\n        return mint_amount;\r\n    }\r\n\r\n    function removeLiquidity(address to)external returns (uint amount0, uint amount1){\r\n        uint balance0 = tokenA.balanceOf(address(this));\r\n        uint balance1 = tokenB.balanceOf(address(this));\r\n        uint256 balanceLP=tokenLP.balanceOf(msg.sender);\r\n        uint256 _totalSupply=tokenLP.totalSupply();\r\n\r\n        amount0=balanceLP.mul(balance0)/_totalSupply;\r\n        amount1=balanceLP.mul(balance1)/_totalSupply;\r\n        require(amount0 > 0 && amount1 > 0, 'Curve Swap: INSUFFICIENT_LIQUIDITY_BURNED');\r\n        tokenLP._burn(msg.sender,balanceLP);\r\n\r\n        tokenA.transfer(msg.sender,amount0);\r\n        tokenB.transfer(msg.sender,amount1);\r\n        // balance\r\n        balance0=tokenA.balanceOf(address(this));\r\n        balance1=tokenB.balanceOf(address(this));\r\n\r\n        _update(balance0,balance1);\r\n        emit RemoveLiquidity(msg.sender,amount0,amount1,to);\r\n    }\r\n\r\n\r\n    function _get_y(uint256 i, uint256 j, uint256 x, uint256[] memory _xp) public view returns (uint256) {\r\n        require(i != j, \"Same coin\");\r\n        require(j < N, \"j above N\");\r\n        require(i < N, \"i above N\");\r\n\r\n        uint256 A = amp;\r\n        uint256 D = _get_D(_xp, A);\r\n        uint256 Ann = A.mul(N);\r\n        uint256 c = D;\r\n        uint256 S = 0;\r\n        uint256 _x = 0;\r\n        uint256 y_prev = 0;\r\n\r\n        for (uint256 _i = 0; _i < N; _i++) {\r\n            if (_i == i) {\r\n                _x = x;\r\n            } else if (_i != j) {\r\n                _x = _xp[_i];\r\n            } else {\r\n                continue;\r\n            }\r\n            S = S.add(_x);\r\n            c = c.mul(D).div(_x.mul(N));\r\n        }\r\n        c = c.mul(D).mul(A_PRECISION).div(Ann.mul(N));\r\n        uint256 b = S.add(D.mul(A_PRECISION).div(Ann));\r\n        uint256 y = D;\r\n\r\n        for (uint256 _i = 0; _i < 255; _i++) {\r\n            y_prev = y;\r\n            y = y.mul(y).add(c).div(y.mul(2).add(b).sub(D));\r\n            if (y > y_prev) {\r\n                if (y.sub(y_prev) <= 1) {\r\n                    return y;\r\n                }\r\n            } else {\r\n                if (y_prev.sub(y) <= 1) {\r\n                    return y;\r\n                }\r\n            }\r\n        }\r\n        revert(\"Failed to converge\");\r\n    }\r\n\r\n    /*\r\n      i Index value for the coin to send\r\n      j Index valie of the coin to recieve\r\n      _dx Amount of `i` being exchanged\r\n      _min_dy Minimum amount of `j` to receive\r\n    */\r\n    function exchange(uint256 i,uint256 j,uint256 _dx,uint256 _min_dy,address to)external returns (uint256){\r\n        require(_dx>0,\"You need to pay tokens\");\r\n        require(i!=j&&(j>=0&&j<N)&&(i>=0&&i<N));\r\n        require(tokenA.allowance(msg.sender,address(this))>=_dx||tokenB.allowance(msg.sender,address(this))>=_dx,\"You have not allow enough tokens to transfer\");\r\n        (uint _reserve0, uint _reserve1)=getReserves();\r\n        require(_reserve0>_min_dy||_reserve1>_min_dy,\"Don't have enough tokens\");\r\n\r\n        uint256[] memory xp=_xp_mem(_reserve0,_reserve1);\r\n        //uint256 x=xp[i]+_dx*RATES/PRECISION;\r\n        uint256 x=xp[i]+_dx;\r\n        uint256 y=_get_y(i,j,x,xp);\r\n        uint256 amountOut=(xp[j]-y-1)*PRECISION/RATES;\r\n        require(amountOut>_min_dy,\"Can not withdraw enough tokens\");\r\n\r\n        if(i==0&&j==1){\r\n            tokenA.transferFrom(msg.sender,address(this),_dx);\r\n            tokenB.transfer(to,amountOut);\r\n        }else if(i==1&&j==0){\r\n            tokenB.transferFrom(msg.sender,address(this),_dx);\r\n            tokenA.transfer(to,amountOut);\r\n        }\r\n\r\n        uint256 balance0=tokenA.balanceOf(address(this));\r\n        uint256 balance1=tokenB.balanceOf(address(this));\r\n        _update(balance0,balance1);\r\n        return amountOut;\r\n        //emit TokenExchange(msg.sender,i,_dx,j,amountOut,to);\r\n    }\r\n\r\n}",
  "sourcePath": "C:\\Users\\10201\\Desktop\\MySwap\\contracts\\Curve.sol",
  "compiler": {
    "name": "solc",
    "version": "0.8.10+commit.fc410830.Emscripten.clang"
  },
  "schemaVersion": "3.4.3",
  "updatedAt": "2023-04-07T11:30:39.421Z",
  "devdoc": {
    "kind": "dev",
    "methods": {},
    "version": 1
  },
  "userdoc": {
    "kind": "user",
    "methods": {},
    "version": 1
  }
}