{
  "contractName": "StandardToken",
  "abi": [
    {
      "anonymous": false,
      "inputs": [
        {
          "indexed": true,
          "internalType": "address",
          "name": "_owner",
          "type": "address"
        },
        {
          "indexed": true,
          "internalType": "address",
          "name": "_spender",
          "type": "address"
        },
        {
          "indexed": false,
          "internalType": "uint256",
          "name": "_value",
          "type": "uint256"
        }
      ],
      "name": "Approval",
      "type": "event"
    },
    {
      "anonymous": false,
      "inputs": [
        {
          "indexed": true,
          "internalType": "address",
          "name": "_from",
          "type": "address"
        },
        {
          "indexed": true,
          "internalType": "address",
          "name": "_to",
          "type": "address"
        },
        {
          "indexed": false,
          "internalType": "uint256",
          "name": "_value",
          "type": "uint256"
        }
      ],
      "name": "Transfer",
      "type": "event"
    },
    {
      "inputs": [],
      "name": "name",
      "outputs": [
        {
          "internalType": "string",
          "name": "",
          "type": "string"
        }
      ],
      "stateMutability": "view",
      "type": "function"
    },
    {
      "inputs": [],
      "name": "symbol",
      "outputs": [
        {
          "internalType": "string",
          "name": "",
          "type": "string"
        }
      ],
      "stateMutability": "view",
      "type": "function"
    },
    {
      "inputs": [],
      "name": "decimals",
      "outputs": [
        {
          "internalType": "uint8",
          "name": "",
          "type": "uint8"
        }
      ],
      "stateMutability": "pure",
      "type": "function"
    },
    {
      "inputs": [],
      "name": "totalSupply",
      "outputs": [
        {
          "internalType": "uint256",
          "name": "",
          "type": "uint256"
        }
      ],
      "stateMutability": "view",
      "type": "function"
    },
    {
      "inputs": [
        {
          "internalType": "address",
          "name": "_owner",
          "type": "address"
        }
      ],
      "name": "balanceOf",
      "outputs": [
        {
          "internalType": "uint256",
          "name": "",
          "type": "uint256"
        }
      ],
      "stateMutability": "view",
      "type": "function"
    },
    {
      "inputs": [
        {
          "internalType": "address",
          "name": "_to",
          "type": "address"
        },
        {
          "internalType": "uint256",
          "name": "_value",
          "type": "uint256"
        }
      ],
      "name": "transfer",
      "outputs": [
        {
          "internalType": "bool",
          "name": "",
          "type": "bool"
        }
      ],
      "stateMutability": "nonpayable",
      "type": "function"
    },
    {
      "inputs": [
        {
          "internalType": "address",
          "name": "_from",
          "type": "address"
        },
        {
          "internalType": "address",
          "name": "_to",
          "type": "address"
        },
        {
          "internalType": "uint256",
          "name": "_value",
          "type": "uint256"
        }
      ],
      "name": "transferFrom",
      "outputs": [
        {
          "internalType": "bool",
          "name": "",
          "type": "bool"
        }
      ],
      "stateMutability": "nonpayable",
      "type": "function"
    },
    {
      "inputs": [
        {
          "internalType": "address",
          "name": "_spender",
          "type": "address"
        },
        {
          "internalType": "uint256",
          "name": "_value",
          "type": "uint256"
        }
      ],
      "name": "approve",
      "outputs": [
        {
          "internalType": "bool",
          "name": "",
          "type": "bool"
        }
      ],
      "stateMutability": "nonpayable",
      "type": "function"
    },
    {
      "inputs": [
        {
          "internalType": "address",
          "name": "_owner",
          "type": "address"
        },
        {
          "internalType": "address",
          "name": "_spender",
          "type": "address"
        }
      ],
      "name": "allowance",
      "outputs": [
        {
          "internalType": "uint256",
          "name": "",
          "type": "uint256"
        }
      ],
      "stateMutability": "view",
      "type": "function"
    },
    {
      "inputs": [
        {
          "internalType": "address",
          "name": "to",
          "type": "address"
        },
        {
          "internalType": "uint256",
          "name": "value",
          "type": "uint256"
        }
      ],
      "name": "_mint",
      "outputs": [],
      "stateMutability": "pure",
      "type": "function"
    },
    {
      "inputs": [
        {
          "internalType": "address",
          "name": "from",
          "type": "address"
        },
        {
          "internalType": "uint256",
          "name": "value",
          "type": "uint256"
        }
      ],
      "name": "_burn",
      "outputs": [],
      "stateMutability": "pure",
      "type": "function"
    }
  ],
  "bytecode": "0x608060405234801561001057600080fd5b506112aa806100206000396000f3fe608060405234801561001057600080fd5b50600436106100a95760003560e01c80634e6ec247116100715780634e6ec247146101685780636161eb181461018457806370a08231146101a057806395d89b41146101d0578063a9059cbb146101ee578063dd62ed3e1461021e576100a9565b806306fdde03146100ae578063095ea7b3146100cc57806318160ddd146100fc57806323b872dd1461011a578063313ce5671461014a575b600080fd5b6100b661024e565b6040516100c39190610ae2565b60405180910390f35b6100e660048036038101906100e19190610b9d565b6102e0565b6040516100f39190610bf8565b60405180910390f35b61010461031b565b6040516101119190610c22565b60405180910390f35b610134600480360381019061012f9190610c3d565b610325565b6040516101419190610bf8565b60405180910390f35b61015261040a565b60405161015f9190610cac565b60405180910390f35b610182600480360381019061017d9190610b9d565b610413565b005b61019e60048036038101906101999190610b9d565b61045b565b005b6101ba60048036038101906101b59190610cc7565b6104a3565b6040516101c79190610c22565b60405180910390f35b6101d86104eb565b6040516101e59190610ae2565b60405180910390f35b61020860048036038101906102039190610b9d565b61057d565b6040516102159190610bf8565b60405180910390f35b61023860048036038101906102339190610cf4565b610594565b6040516102459190610c22565b60405180910390f35b60606003805461025d90610d63565b80601f016020809104026020016040519081016040528092919081815260200182805461028990610d63565b80156102d65780601f106102ab576101008083540402835291602001916102d6565b820191906000526020600020905b8154815290600101906020018083116102b957829003601f168201915b5050505050905090565b6000808214806102f9575060006102f73385610594565b145b61030657610305610d95565b5b61031133848461061b565b6001905092915050565b6000600254905090565b60008273ffffffffffffffffffffffffffffffffffffffff163373ffffffffffffffffffffffffffffffffffffffff1614610395576040517f08c379a000000000000000000000000000000000000000000000000000000000815260040161038c90610e36565b60405180910390fd5b60006103a18533610594565b9050828110156103e6576040517f08c379a00000000000000000000000000000000000000000000000000000000081526004016103dd90610ea2565b60405180910390fd5b6103f3858585840361061b565b6103fe8533856107e6565b60019150509392505050565b60006012905090565b6002600114610457576040517f08c379a000000000000000000000000000000000000000000000000000000000815260040161044e90610f0e565b60405180910390fd5b5050565b600260011461049f576040517f08c379a000000000000000000000000000000000000000000000000000000000815260040161049690610f7a565b60405180910390fd5b5050565b60008060008373ffffffffffffffffffffffffffffffffffffffff1673ffffffffffffffffffffffffffffffffffffffff168152602001908152602001600020549050919050565b6060600480546104fa90610d63565b80601f016020809104026020016040519081016040528092919081815260200182805461052690610d63565b80156105735780601f1061054857610100808354040283529160200191610573565b820191906000526020600020905b81548152906001019060200180831161055657829003601f168201915b5050505050905090565b600061058a3384846107e6565b6001905092915050565b6000600160008473ffffffffffffffffffffffffffffffffffffffff1673ffffffffffffffffffffffffffffffffffffffff16815260200190815260200160002060008373ffffffffffffffffffffffffffffffffffffffff1673ffffffffffffffffffffffffffffffffffffffff16815260200190815260200160002054905092915050565b600073ffffffffffffffffffffffffffffffffffffffff168373ffffffffffffffffffffffffffffffffffffffff16141561068b576040517f08c379a00000000000000000000000000000000000000000000000000000000081526004016106829061100c565b60405180910390fd5b600073ffffffffffffffffffffffffffffffffffffffff168273ffffffffffffffffffffffffffffffffffffffff1614156106fb576040517f08c379a00000000000000000000000000000000000000000000000000000000081526004016106f29061109e565b60405180910390fd5b80600160008573ffffffffffffffffffffffffffffffffffffffff1673ffffffffffffffffffffffffffffffffffffffff16815260200190815260200160002060008473ffffffffffffffffffffffffffffffffffffffff1673ffffffffffffffffffffffffffffffffffffffff168152602001908152602001600020819055508173ffffffffffffffffffffffffffffffffffffffff168373ffffffffffffffffffffffffffffffffffffffff167f8c5be1e5ebec7d5bd14f71427d1e84f3dd0314c0f7b2291e5b200ac8c7c3b925836040516107d99190610c22565b60405180910390a3505050565b600073ffffffffffffffffffffffffffffffffffffffff168373ffffffffffffffffffffffffffffffffffffffff161415610856576040517f08c379a000000000000000000000000000000000000000000000000000000000815260040161084d90611130565b60405180910390fd5b600073ffffffffffffffffffffffffffffffffffffffff168273ffffffffffffffffffffffffffffffffffffffff1614156108c6576040517f08c379a00000000000000000000000000000000000000000000000000000000081526004016108bd906111c2565b60405180910390fd5b806000808573ffffffffffffffffffffffffffffffffffffffff1673ffffffffffffffffffffffffffffffffffffffff168152602001908152602001600020541015610947576040517f08c379a000000000000000000000000000000000000000000000000000000000815260040161093e90611254565b60405180910390fd5b806000808573ffffffffffffffffffffffffffffffffffffffff1673ffffffffffffffffffffffffffffffffffffffff16815260200190815260200160002060008282540392505081905550806000808473ffffffffffffffffffffffffffffffffffffffff1673ffffffffffffffffffffffffffffffffffffffff168152602001908152602001600020600082825401925050819055508173ffffffffffffffffffffffffffffffffffffffff168373ffffffffffffffffffffffffffffffffffffffff167fddf252ad1be2c89b69c2b068fc378daa952ba7f163c4a11628f55a4df523b3ef83604051610a3c9190610c22565b60405180910390a3505050565b600081519050919050565b600082825260208201905092915050565b60005b83811015610a83578082015181840152602081019050610a68565b83811115610a92576000848401525b50505050565b6000601f19601f8301169050919050565b6000610ab482610a49565b610abe8185610a54565b9350610ace818560208601610a65565b610ad781610a98565b840191505092915050565b60006020820190508181036000830152610afc8184610aa9565b905092915050565b600080fd5b600073ffffffffffffffffffffffffffffffffffffffff82169050919050565b6000610b3482610b09565b9050919050565b610b4481610b29565b8114610b4f57600080fd5b50565b600081359050610b6181610b3b565b92915050565b6000819050919050565b610b7a81610b67565b8114610b8557600080fd5b50565b600081359050610b9781610b71565b92915050565b60008060408385031215610bb457610bb3610b04565b5b6000610bc285828601610b52565b9250506020610bd385828601610b88565b9150509250929050565b60008115159050919050565b610bf281610bdd565b82525050565b6000602082019050610c0d6000830184610be9565b92915050565b610c1c81610b67565b82525050565b6000602082019050610c376000830184610c13565b92915050565b600080600060608486031215610c5657610c55610b04565b5b6000610c6486828701610b52565b9350506020610c7586828701610b52565b9250506040610c8686828701610b88565b9150509250925092565b600060ff82169050919050565b610ca681610c90565b82525050565b6000602082019050610cc16000830184610c9d565b92915050565b600060208284031215610cdd57610cdc610b04565b5b6000610ceb84828501610b52565b91505092915050565b60008060408385031215610d0b57610d0a610b04565b5b6000610d1985828601610b52565b9250506020610d2a85828601610b52565b9150509250929050565b7f4e487b7100000000000000000000000000000000000000000000000000000000600052602260045260246000fd5b60006002820490506001821680610d7b57607f821691505b60208210811415610d8f57610d8e610d34565b5b50919050565b7f4e487b7100000000000000000000000000000000000000000000000000000000600052600160045260246000fd5b7f45524332303a207472616e736665727320746f20616e6f74686572206164647260008201527f657373207468616e2063616c6c6572206e6f7420616c6c6f7765640000000000602082015250565b6000610e20603b83610a54565b9150610e2b82610dc4565b604082019050919050565b60006020820190508181036000830152610e4f81610e13565b9050919050565b7f45524332303a20696e73756666696369656e7420616c6c6f77616e6365000000600082015250565b6000610e8c601d83610a54565b9150610e9782610e56565b602082019050919050565b60006020820190508181036000830152610ebb81610e7f565b9050919050565b7f5468697320746f6b656e2063616e206e6f74206d696e742e0000000000000000600082015250565b6000610ef8601883610a54565b9150610f0382610ec2565b602082019050919050565b60006020820190508181036000830152610f2781610eeb565b9050919050565b7f5468697320746f6b656e2063616e206e6f74206275726e2e0000000000000000600082015250565b6000610f64601883610a54565b9150610f6f82610f2e565b602082019050919050565b60006020820190508181036000830152610f9381610f57565b9050919050565b7f45524332303a20617070726f76652066726f6d20746865207a65726f2061646460008201527f7265737300000000000000000000000000000000000000000000000000000000602082015250565b6000610ff6602483610a54565b915061100182610f9a565b604082019050919050565b6000602082019050818103600083015261102581610fe9565b9050919050565b7f45524332303a20617070726f766520746f20746865207a65726f20616464726560008201527f7373000000000000000000000000000000000000000000000000000000000000602082015250565b6000611088602283610a54565b91506110938261102c565b604082019050919050565b600060208201905081810360008301526110b78161107b565b9050919050565b7f45524332303a207472616e736665722066726f6d20746865207a65726f20616460008201527f6472657373000000000000000000000000000000000000000000000000000000602082015250565b600061111a602583610a54565b9150611125826110be565b604082019050919050565b600060208201905081810360008301526111498161110d565b9050919050565b7f45524332303a207472616e7366657220746f20746865207a65726f206164647260008201527f6573730000000000000000000000000000000000000000000000000000000000602082015250565b60006111ac602383610a54565b91506111b782611150565b604082019050919050565b600060208201905081810360008301526111db8161119f565b9050919050565b7f45524332303a207472616e7366657220616d6f756e742065786365656473206260008201527f616c616e63650000000000000000000000000000000000000000000000000000602082015250565b600061123e602683610a54565b9150611249826111e2565b604082019050919050565b6000602082019050818103600083015261126d81611231565b905091905056fea26469706673582212205c9347cdcda5814c6fad004a5de423fcce1b13437b045539ee390f014e740bbf64736f6c634300080a0033",
  "immutableReferences": {},
  "source": "// SPDX-License-Identifier: MIT\r\npragma solidity ^0.8.0;\r\n\r\nimport './ERC20.sol';\r\n\r\ncontract StandardToken is ERC20 {\r\n    mapping(address => uint256) internal _balances;\r\n    mapping(address => mapping(address => uint256)) internal _allowed;\r\n\r\n    uint256 internal _totalSupply;\r\n    string internal _name;\r\n    string internal _symbol;\r\n\r\n    function name() public view override returns (string memory) {\r\n        return _name;\r\n    }\r\n\r\n    function symbol() public view override returns (string memory) {\r\n        return _symbol;\r\n    }\r\n\r\n    function decimals() public pure override returns (uint8) {\r\n        return 18;\r\n    }\r\n\r\n    function totalSupply() public view virtual override returns (uint256) {\r\n        return _totalSupply;\r\n    }\r\n    function balanceOf(address _owner) public view override returns (uint256) {\r\n        return _balances[_owner];\r\n    }\r\n\r\n    function transfer(address _to, uint256 _value) public override returns (bool) {\r\n        _transfer(msg.sender, _to, _value);\r\n        return true;\r\n    }\r\n\r\n    function _transfer(address _from, address _to, uint256 _value) internal {\r\n        require(_from != address(0), \"ERC20: transfer from the zero address\");\r\n        require(_to != address(0), \"ERC20: transfer to the zero address\");\r\n        require(_balances[_from] >= _value, \"ERC20: transfer amount exceeds balance\");\r\n\r\n        unchecked {\r\n            _balances[_from] -= _value;\r\n            _balances[_to] += _value;\r\n        }\r\n\r\n        emit Transfer(_from, _to, _value);\r\n    }\r\n\r\n    function transferFrom(address _from, address _to, uint256 _value) public override returns (bool) {\r\n        require(msg.sender == _to, \"ERC20: transfers to another address than caller not allowed\");\r\n\r\n        uint256 _allowance = allowance(_from, msg.sender);\r\n        require(_allowance >= _value, \"ERC20: insufficient allowance\");\r\n\r\n        unchecked {\r\n            _approve(_from,_to,_allowance - _value);\r\n        }\r\n\r\n        _transfer(_from, msg.sender, _value);\r\n        return true;\r\n    }\r\n\r\n    function approve(address _spender, uint256 _value) public override returns (bool) {\r\n        assert((_value == 0) || (allowance(msg.sender, _spender) == 0));\r\n        _approve(msg.sender, _spender, _value);\r\n        return true;\r\n    }\r\n\r\n    function _approve(address _owner, address _spender, uint256 _value) internal virtual {\r\n        require(_owner != address(0), \"ERC20: approve from the zero address\");\r\n        require(_spender != address(0), \"ERC20: approve to the zero address\");\r\n\r\n        _allowed[_owner][_spender] = _value;\r\n        emit Approval(_owner, _spender, _value);\r\n    }\r\n\r\n    function allowance(address _owner, address _spender) public view override returns (uint256) {\r\n        return _allowed[_owner][_spender];\r\n    }\r\n\r\n    function _mint(address to, uint value) pure external {\r\n        to = to;\r\n        value = value;\r\n        require(1==2,\"This token can not mint.\");\r\n    }\r\n\r\n    function _burn(address from, uint value) pure external {\r\n        from = from;\r\n        value = value;\r\n        require(1==2,\"This token can not burn.\");\r\n    }\r\n}\r\n",
  "sourcePath": "C:\\Users\\10201\\Desktop\\MySwap\\contracts\\StandardToken.sol",
  "compiler": {
    "name": "solc",
    "version": "0.8.10+commit.fc410830.Emscripten.clang"
  },
  "schemaVersion": "3.4.3",
  "updatedAt": "2023-04-07T13:27:02.172Z",
  "devdoc": {
    "kind": "dev",
    "methods": {},
    "version": 1
  },
  "userdoc": {
    "kind": "user",
    "methods": {},
    "version": 1
  }
}