{
  "contractName": "TokenPool",
  "abi": [
    {
      "inputs": [
        {
          "internalType": "address",
          "name": "_token1",
          "type": "address"
        },
        {
          "internalType": "address",
          "name": "_token2",
          "type": "address"
        },
        {
          "internalType": "address",
          "name": "_TokenLP",
          "type": "address"
        }
      ],
      "stateMutability": "nonpayable",
      "type": "constructor"
    },
    {
      "anonymous": false,
      "inputs": [
        {
          "indexed": true,
          "internalType": "address",
          "name": "sender",
          "type": "address"
        },
        {
          "indexed": false,
          "internalType": "uint256",
          "name": "amount0",
          "type": "uint256"
        },
        {
          "indexed": false,
          "internalType": "uint256",
          "name": "amount1",
          "type": "uint256"
        },
        {
          "indexed": true,
          "internalType": "address",
          "name": "to",
          "type": "address"
        }
      ],
      "name": "Burn",
      "type": "event"
    },
    {
      "anonymous": false,
      "inputs": [
        {
          "indexed": true,
          "internalType": "address",
          "name": "sender",
          "type": "address"
        },
        {
          "indexed": false,
          "internalType": "uint256",
          "name": "amount0",
          "type": "uint256"
        },
        {
          "indexed": false,
          "internalType": "uint256",
          "name": "amount1",
          "type": "uint256"
        }
      ],
      "name": "Mint",
      "type": "event"
    },
    {
      "anonymous": false,
      "inputs": [
        {
          "indexed": true,
          "internalType": "address",
          "name": "sender",
          "type": "address"
        },
        {
          "indexed": false,
          "internalType": "uint256",
          "name": "amountIn",
          "type": "uint256"
        },
        {
          "indexed": false,
          "internalType": "bool",
          "name": "tokenType",
          "type": "bool"
        },
        {
          "indexed": false,
          "internalType": "uint256",
          "name": "minimumOut",
          "type": "uint256"
        },
        {
          "indexed": false,
          "internalType": "uint256",
          "name": "amountOut",
          "type": "uint256"
        },
        {
          "indexed": true,
          "internalType": "address",
          "name": "to",
          "type": "address"
        }
      ],
      "name": "Swap",
      "type": "event"
    },
    {
      "anonymous": false,
      "inputs": [
        {
          "indexed": false,
          "internalType": "uint256",
          "name": "reserve0",
          "type": "uint256"
        },
        {
          "indexed": false,
          "internalType": "uint256",
          "name": "reserve1",
          "type": "uint256"
        }
      ],
      "name": "Sync",
      "type": "event"
    },
    {
      "inputs": [],
      "name": "MINIMUM_LIQUIDITY",
      "outputs": [
        {
          "internalType": "uint256",
          "name": "",
          "type": "uint256"
        }
      ],
      "stateMutability": "view",
      "type": "function"
    },
    {
      "inputs": [],
      "name": "price0CumulativeLast",
      "outputs": [
        {
          "internalType": "uint256",
          "name": "",
          "type": "uint256"
        }
      ],
      "stateMutability": "view",
      "type": "function"
    },
    {
      "inputs": [],
      "name": "price1CumulativeLast",
      "outputs": [
        {
          "internalType": "uint256",
          "name": "",
          "type": "uint256"
        }
      ],
      "stateMutability": "view",
      "type": "function"
    },
    {
      "inputs": [],
      "name": "x",
      "outputs": [
        {
          "internalType": "uint256",
          "name": "",
          "type": "uint256"
        }
      ],
      "stateMutability": "view",
      "type": "function"
    },
    {
      "inputs": [],
      "name": "y",
      "outputs": [
        {
          "internalType": "uint256",
          "name": "",
          "type": "uint256"
        }
      ],
      "stateMutability": "view",
      "type": "function"
    },
    {
      "inputs": [],
      "name": "getReserves",
      "outputs": [
        {
          "internalType": "uint256",
          "name": "_reserve0",
          "type": "uint256"
        },
        {
          "internalType": "uint256",
          "name": "_reserve1",
          "type": "uint256"
        },
        {
          "internalType": "uint32",
          "name": "_blockTimestampLast",
          "type": "uint32"
        }
      ],
      "stateMutability": "view",
      "type": "function"
    },
    {
      "inputs": [
        {
          "internalType": "address",
          "name": "to",
          "type": "address"
        }
      ],
      "name": "mint",
      "outputs": [
        {
          "internalType": "uint256",
          "name": "liquidity",
          "type": "uint256"
        }
      ],
      "stateMutability": "nonpayable",
      "type": "function"
    },
    {
      "inputs": [
        {
          "internalType": "address",
          "name": "to",
          "type": "address"
        }
      ],
      "name": "burn",
      "outputs": [
        {
          "internalType": "uint256",
          "name": "amount0",
          "type": "uint256"
        },
        {
          "internalType": "uint256",
          "name": "amount1",
          "type": "uint256"
        }
      ],
      "stateMutability": "nonpayable",
      "type": "function"
    },
    {
      "inputs": [
        {
          "internalType": "uint256",
          "name": "amountIn",
          "type": "uint256"
        },
        {
          "internalType": "bool",
          "name": "tokenType",
          "type": "bool"
        },
        {
          "internalType": "uint256",
          "name": "minimumOut",
          "type": "uint256"
        },
        {
          "internalType": "address",
          "name": "to",
          "type": "address"
        }
      ],
      "name": "swap",
      "outputs": [],
      "stateMutability": "nonpayable",
      "type": "function"
    }
  ],
  "bytecode": "0x60806040523480156200001157600080fd5b50604051620025ab380380620025ab83398181016040528101906200003791906200016d565b82600360006101000a81548173ffffffffffffffffffffffffffffffffffffffff021916908373ffffffffffffffffffffffffffffffffffffffff16021790555081600460006101000a81548173ffffffffffffffffffffffffffffffffffffffff021916908373ffffffffffffffffffffffffffffffffffffffff16021790555080600560006101000a81548173ffffffffffffffffffffffffffffffffffffffff021916908373ffffffffffffffffffffffffffffffffffffffff160217905550505050620001c9565b600080fd5b600073ffffffffffffffffffffffffffffffffffffffff82169050919050565b6000620001358262000108565b9050919050565b620001478162000128565b81146200015357600080fd5b50565b60008151905062000167816200013c565b92915050565b60008060006060848603121562000189576200018862000103565b5b6000620001998682870162000156565b9350506020620001ac8682870162000156565b9250506040620001bf8682870162000156565b9150509250925092565b6123d280620001d96000396000f3fe608060405234801561001057600080fd5b50600436106100935760003560e01c80636a627842116100665780636a6278421461011257806389afcb4414610142578063a56dfe4a14610173578063ba9a7a5614610191578063ddcab526146101af57610093565b80630902f1ac146100985780630c55699c146100b85780635909c0d5146100d65780635a3d5493146100f4575b600080fd5b6100a06101cb565b6040516100af93929190611a2c565b60405180910390f35b6100c06101f4565b6040516100cd9190611a63565b60405180910390f35b6100de6101fa565b6040516100eb9190611a63565b60405180910390f35b6100fc610200565b6040516101099190611a63565b60405180910390f35b61012c60048036038101906101279190611ae1565b610206565b6040516101399190611a63565b60405180910390f35b61015c60048036038101906101579190611ae1565b610782565b60405161016a929190611b0e565b60405180910390f35b61017b610d3a565b6040516101889190611a63565b60405180910390f35b610199610d40565b6040516101a69190611a63565b60405180910390f35b6101c960048036038101906101c49190611b9b565b610d46565b005b600080600060085492506009549150600a60009054906101000a900463ffffffff169050909192565b60065481565b600b5481565b600c5481565b60008060006102136101cb565b50915091506000600360009054906101000a900473ffffffffffffffffffffffffffffffffffffffff1673ffffffffffffffffffffffffffffffffffffffff1663dd62ed3e33306040518363ffffffff1660e01b8152600401610277929190611c11565b602060405180830381865afa158015610294573d6000803e3d6000fd5b505050506040513d601f19601f820116820180604052508101906102b89190611c4f565b90506000600460009054906101000a900473ffffffffffffffffffffffffffffffffffffffff1673ffffffffffffffffffffffffffffffffffffffff1663dd62ed3e33306040518363ffffffff1660e01b8152600401610319929190611c11565b602060405180830381865afa158015610336573d6000803e3d6000fd5b505050506040513d601f19601f8201168201806040525081019061035a9190611c4f565b9050600061037185846114c590919063ffffffff16565b9050600061038885846114c590919063ffffffff16565b905060008211801561039a5750600081115b6103d9576040517f08c379a00000000000000000000000000000000000000000000000000000000081526004016103d090611cff565b60405180910390fd5b600360009054906101000a900473ffffffffffffffffffffffffffffffffffffffff1673ffffffffffffffffffffffffffffffffffffffff166323b872dd3330876040518463ffffffff1660e01b815260040161043893929190611d1f565b6020604051808303816000875af1158015610457573d6000803e3d6000fd5b505050506040513d601f19601f8201168201806040525081019061047b9190611d6b565b50600460009054906101000a900473ffffffffffffffffffffffffffffffffffffffff1673ffffffffffffffffffffffffffffffffffffffff166323b872dd3330876040518463ffffffff1660e01b81526004016104db93929190611d1f565b6020604051808303816000875af11580156104fa573d6000803e3d6000fd5b505050506040513d601f19601f8201168201806040525081019061051e9190611d6b565b506000600560009054906101000a900473ffffffffffffffffffffffffffffffffffffffff1673ffffffffffffffffffffffffffffffffffffffff166318160ddd6040518163ffffffff1660e01b8152600401602060405180830381865afa15801561058e573d6000803e3d6000fd5b505050506040513d601f19601f820116820180604052508101906105b29190611c4f565b90506000811415610601576105ec6103e86105de6105d985876114ec90919063ffffffff16565b61152d565b6114c590919063ffffffff16565b97508260068190555081600781905550610648565b6106458761061883866114ec90919063ffffffff16565b6106229190611df6565b8761063684866114ec90919063ffffffff16565b6106409190611df6565b611627565b97505b6000881161068b576040517f08c379a000000000000000000000000000000000000000000000000000000000815260040161068290611e99565b60405180910390fd5b600560009054906101000a900473ffffffffffffffffffffffffffffffffffffffff1673ffffffffffffffffffffffffffffffffffffffff16634e6ec2478a8a6040518363ffffffff1660e01b81526004016106e8929190611eb9565b600060405180830381600087803b15801561070257600080fd5b505af1158015610716573d6000803e3d6000fd5b5050505061072685858989611640565b3373ffffffffffffffffffffffffffffffffffffffff167f4c209b5fc8ad50758f13e2e1088ba56a560dff690a1c6fef26394f4c03821c4f848460405161076e929190611b0e565b60405180910390a250505050505050919050565b6000806000806107906101cb565b50915091506000600360009054906101000a900473ffffffffffffffffffffffffffffffffffffffff1673ffffffffffffffffffffffffffffffffffffffff166370a08231306040518263ffffffff1660e01b81526004016107f29190611ee2565b602060405180830381865afa15801561080f573d6000803e3d6000fd5b505050506040513d601f19601f820116820180604052508101906108339190611c4f565b90506000600460009054906101000a900473ffffffffffffffffffffffffffffffffffffffff1673ffffffffffffffffffffffffffffffffffffffff166370a08231306040518263ffffffff1660e01b81526004016108929190611ee2565b602060405180830381865afa1580156108af573d6000803e3d6000fd5b505050506040513d601f19601f820116820180604052508101906108d39190611c4f565b90506000600560009054906101000a900473ffffffffffffffffffffffffffffffffffffffff1673ffffffffffffffffffffffffffffffffffffffff166370a08231336040518263ffffffff1660e01b81526004016109329190611ee2565b602060405180830381865afa15801561094f573d6000803e3d6000fd5b505050506040513d601f19601f820116820180604052508101906109739190611c4f565b90506000600560009054906101000a900473ffffffffffffffffffffffffffffffffffffffff1673ffffffffffffffffffffffffffffffffffffffff166318160ddd6040518163ffffffff1660e01b8152600401602060405180830381865afa1580156109e4573d6000803e3d6000fd5b505050506040513d601f19601f82011682018060405250810190610a089190611c4f565b905080610a1e85846114ec90919063ffffffff16565b610a289190611df6565b975080610a3e84846114ec90919063ffffffff16565b610a489190611df6565b9650600088118015610a5a5750600087115b610a99576040517f08c379a0000000000000000000000000000000000000000000000000000000008152600401610a9090611f6f565b60405180910390fd5b600560009054906101000a900473ffffffffffffffffffffffffffffffffffffffff1673ffffffffffffffffffffffffffffffffffffffff16636161eb1830846040518363ffffffff1660e01b8152600401610af6929190611eb9565b600060405180830381600087803b158015610b1057600080fd5b505af1158015610b24573d6000803e3d6000fd5b50505050610b5360008054906101000a900473ffffffffffffffffffffffffffffffffffffffff168a8a611789565b610b80600160009054906101000a900473ffffffffffffffffffffffffffffffffffffffff168a89611789565b600360009054906101000a900473ffffffffffffffffffffffffffffffffffffffff1673ffffffffffffffffffffffffffffffffffffffff166370a08231306040518263ffffffff1660e01b8152600401610bdb9190611ee2565b602060405180830381865afa158015610bf8573d6000803e3d6000fd5b505050506040513d601f19601f82011682018060405250810190610c1c9190611c4f565b9350600460009054906101000a900473ffffffffffffffffffffffffffffffffffffffff1673ffffffffffffffffffffffffffffffffffffffff166370a08231306040518263ffffffff1660e01b8152600401610c799190611ee2565b602060405180830381865afa158015610c96573d6000803e3d6000fd5b505050506040513d601f19601f82011682018060405250810190610cba9190611c4f565b9250610cc884848888611640565b8873ffffffffffffffffffffffffffffffffffffffff163373ffffffffffffffffffffffffffffffffffffffff167fdccd412f0b1252819cb1fd330b93224ca42612892bb3f4f789976e6d819364968a8a604051610d27929190611b0e565b60405180910390a3505050505050915091565b60075481565b6103e881565b60008411610d89576040517f08c379a0000000000000000000000000000000000000000000000000000000008152600401610d8090611fdb565b60405180910390fd5b60001515831515148015610e3a575083600360009054906101000a900473ffffffffffffffffffffffffffffffffffffffff1673ffffffffffffffffffffffffffffffffffffffff1663dd62ed3e33306040518363ffffffff1660e01b8152600401610df6929190611c11565b602060405180830381865afa158015610e13573d6000803e3d6000fd5b505050506040513d601f19601f82011682018060405250810190610e379190611c4f565b10155b80610ef2575060011515831515148015610ef1575083600460009054906101000a900473ffffffffffffffffffffffffffffffffffffffff1673ffffffffffffffffffffffffffffffffffffffff1663dd62ed3e33306040518363ffffffff1660e01b8152600401610ead929190611c11565b602060405180830381865afa158015610eca573d6000803e3d6000fd5b505050506040513d601f19601f82011682018060405250810190610eee9190611c4f565b10155b5b610efb57600080fd5b600080610f066101cb565b509150915060001515851515148015610f1e57508382115b80610f38575060011515851515148015610f3757508381115b5b610f77576040517f08c379a0000000000000000000000000000000000000000000000000000000008152600401610f6e90612047565b60405180910390fd5b600080839050600083905060001515881515141561114d578885610f9b9190612067565b600754600654610fab91906120bd565b610fb59190611df6565b84610fc09190612117565b9250868311611004576040517f08c379a0000000000000000000000000000000000000000000000000000000008152600401610ffb90612197565b60405180910390fd5b600360009054906101000a900473ffffffffffffffffffffffffffffffffffffffff1673ffffffffffffffffffffffffffffffffffffffff166323b872dd33308c6040518463ffffffff1660e01b815260040161106393929190611d1f565b6020604051808303816000875af1158015611082573d6000803e3d6000fd5b505050506040513d601f19601f820116820180604052508101906110a69190611d6b565b50600460009054906101000a900473ffffffffffffffffffffffffffffffffffffffff1673ffffffffffffffffffffffffffffffffffffffff1663a9059cbb87856040518363ffffffff1660e01b8152600401611104929190611eb9565b6020604051808303816000875af1158015611123573d6000803e3d6000fd5b505050506040513d601f19601f820116820180604052508101906111479190611d6b565b50611307565b88846111599190612067565b60075460065461116991906120bd565b6111739190611df6565b8561117e9190612117565b92508683116111c2576040517f08c379a00000000000000000000000000000000000000000000000000000000081526004016111b990612197565b60405180910390fd5b600460009054906101000a900473ffffffffffffffffffffffffffffffffffffffff1673ffffffffffffffffffffffffffffffffffffffff166323b872dd33308c6040518463ffffffff1660e01b815260040161122193929190611d1f565b6020604051808303816000875af1158015611240573d6000803e3d6000fd5b505050506040513d601f19601f820116820180604052508101906112649190611d6b565b50600360009054906101000a900473ffffffffffffffffffffffffffffffffffffffff1673ffffffffffffffffffffffffffffffffffffffff1663a9059cbb87856040518363ffffffff1660e01b81526004016112c2929190611eb9565b6020604051808303816000875af11580156112e1573d6000803e3d6000fd5b505050506040513d601f19601f820116820180604052508101906113059190611d6b565b505b600360009054906101000a900473ffffffffffffffffffffffffffffffffffffffff1673ffffffffffffffffffffffffffffffffffffffff166370a08231306040518263ffffffff1660e01b81526004016113629190611ee2565b602060405180830381865afa15801561137f573d6000803e3d6000fd5b505050506040513d601f19601f820116820180604052508101906113a39190611c4f565b9150600460009054906101000a900473ffffffffffffffffffffffffffffffffffffffff1673ffffffffffffffffffffffffffffffffffffffff166370a08231306040518263ffffffff1660e01b81526004016114009190611ee2565b602060405180830381865afa15801561141d573d6000803e3d6000fd5b505050506040513d601f19601f820116820180604052508101906114419190611c4f565b905061144f82828787611640565b8573ffffffffffffffffffffffffffffffffffffffff163373ffffffffffffffffffffffffffffffffffffffff167fe51974a6a07c21792d4c6e6a42c08e70e7ee36459e67b1214dd7418cabc272fb8b8b8b886040516114b294939291906121c6565b60405180910390a3505050505050505050565b6000828211156114d8576114d761220b565b5b81836114e49190612117565b905092915050565b60008082846114fb91906120bd565b9050600084148061151657508284826115149190611df6565b145b6115235761152261220b565b5b8091505092915050565b6000808214156115405760009050611622565b6000600161154d84611913565b901c6001901b9050600181848161156757611566611d98565b5b048201901c905060018184816115805761157f611d98565b5b048201901c9050600181848161159957611598611d98565b5b048201901c905060018184816115b2576115b1611d98565b5b048201901c905060018184816115cb576115ca611d98565b5b048201901c905060018184816115e4576115e3611d98565b5b048201901c905060018184816115fd576115fc611d98565b5b048201901c905061161e8182858161161857611617611d98565b5b04611627565b9150505b919050565b60008183106116365781611638565b825b905092915050565b600064010000000042611653919061223a565b90506000600a60009054906101000a900463ffffffff1682611675919061226b565b905060008163ffffffff1611801561168e575060008414155b801561169b575060008314155b156116f5578063ffffffff16846116b291906120bd565b600b60008282546116c39190612067565b925050819055508063ffffffff16836116dc91906120bd565b600c60008282546116ed9190612067565b925050819055505b856dffffffffffffffffffffffffffff16600881905550846dffffffffffffffffffffffffffff1660098190555081600a60006101000a81548163ffffffff021916908363ffffffff1602179055507fcf2aa50876cdfbb541206f89af0ee78d44a2abf8d328e37fa4917f982149848a600854600954604051611779929190611b0e565b60405180910390a1505050505050565b6000808473ffffffffffffffffffffffffffffffffffffffff166040518060400160405280601981526020017f7472616e7366657228616464726573732c75696e7432353629000000000000008152508051906020012085856040516024016117f3929190611eb9565b604051602081830303815290604052907bffffffffffffffffffffffffffffffffffffffffffffffffffffffff19166020820180517bffffffffffffffffffffffffffffffffffffffffffffffffffffffff838183161783525050505060405161185d9190612319565b6000604051808303816000865af19150503d806000811461189a576040519150601f19603f3d011682016040523d82523d6000602084013e61189f565b606091505b50915091508180156118cd57506000815114806118cc5750808060200190518101906118cb9190611d6b565b5b5b61190c576040517f08c379a00000000000000000000000000000000000000000000000000000000081526004016119039061237c565b60405180910390fd5b5050505050565b600080600090506000608084901c111561193557608083901c92506080810190505b6000604084901c111561195057604083901c92506040810190505b6000602084901c111561196b57602083901c92506020810190505b6000601084901c111561198657601083901c92506010810190505b6000600884901c11156119a157600883901c92506008810190505b6000600484901c11156119bc57600483901c92506004810190505b6000600284901c11156119d757600283901c92506002810190505b6000600184901c11156119eb576001810190505b80915050919050565b6000819050919050565b611a07816119f4565b82525050565b600063ffffffff82169050919050565b611a2681611a0d565b82525050565b6000606082019050611a4160008301866119fe565b611a4e60208301856119fe565b611a5b6040830184611a1d565b949350505050565b6000602082019050611a7860008301846119fe565b92915050565b600080fd5b600073ffffffffffffffffffffffffffffffffffffffff82169050919050565b6000611aae82611a83565b9050919050565b611abe81611aa3565b8114611ac957600080fd5b50565b600081359050611adb81611ab5565b92915050565b600060208284031215611af757611af6611a7e565b5b6000611b0584828501611acc565b91505092915050565b6000604082019050611b2360008301856119fe565b611b3060208301846119fe565b9392505050565b611b40816119f4565b8114611b4b57600080fd5b50565b600081359050611b5d81611b37565b92915050565b60008115159050919050565b611b7881611b63565b8114611b8357600080fd5b50565b600081359050611b9581611b6f565b92915050565b60008060008060808587031215611bb557611bb4611a7e565b5b6000611bc387828801611b4e565b9450506020611bd487828801611b86565b9350506040611be587828801611b4e565b9250506060611bf687828801611acc565b91505092959194509250565b611c0b81611aa3565b82525050565b6000604082019050611c266000830185611c02565b611c336020830184611c02565b9392505050565b600081519050611c4981611b37565b92915050565b600060208284031215611c6557611c64611a7e565b5b6000611c7384828501611c3a565b91505092915050565b600082825260208201905092915050565b7f596f75206e65656420746f2070757420626f746820746f6b656e7320696e207460008201527f686520706f6f6c2e000000000000000000000000000000000000000000000000602082015250565b6000611ce9602883611c7c565b9150611cf482611c8d565b604082019050919050565b60006020820190508181036000830152611d1881611cdc565b9050919050565b6000606082019050611d346000830186611c02565b611d416020830185611c02565b611d4e60408301846119fe565b949350505050565b600081519050611d6581611b6f565b92915050565b600060208284031215611d8157611d80611a7e565b5b6000611d8f84828501611d56565b91505092915050565b7f4e487b7100000000000000000000000000000000000000000000000000000000600052601260045260246000fd5b7f4e487b7100000000000000000000000000000000000000000000000000000000600052601160045260246000fd5b6000611e01826119f4565b9150611e0c836119f4565b925082611e1c57611e1b611d98565b5b828204905092915050565b7f556e697377617056323a20494e53554646494349454e545f4c4951554944495460008201527f595f4d494e544544000000000000000000000000000000000000000000000000602082015250565b6000611e83602883611c7c565b9150611e8e82611e27565b604082019050919050565b60006020820190508181036000830152611eb281611e76565b9050919050565b6000604082019050611ece6000830185611c02565b611edb60208301846119fe565b9392505050565b6000602082019050611ef76000830184611c02565b92915050565b7f556e697377617056323a20494e53554646494349454e545f4c4951554944495460008201527f595f4255524e4544000000000000000000000000000000000000000000000000602082015250565b6000611f59602883611c7c565b9150611f6482611efd565b604082019050919050565b60006020820190508181036000830152611f8881611f4c565b9050919050565b7f596f75206e65656420746f2070617920746f6b656e732e000000000000000000600082015250565b6000611fc5601783611c7c565b9150611fd082611f8f565b602082019050919050565b60006020820190508181036000830152611ff481611fb8565b9050919050565b7f446f206e6f74206861766520656e6f75676820746f6b656e732e000000000000600082015250565b6000612031601a83611c7c565b915061203c82611ffb565b602082019050919050565b6000602082019050818103600083015261206081612024565b9050919050565b6000612072826119f4565b915061207d836119f4565b9250827fffffffffffffffffffffffffffffffffffffffffffffffffffffffffffffffff038211156120b2576120b1611dc7565b5b828201905092915050565b60006120c8826119f4565b91506120d3836119f4565b9250817fffffffffffffffffffffffffffffffffffffffffffffffffffffffffffffffff048311821515161561210c5761210b611dc7565b5b828202905092915050565b6000612122826119f4565b915061212d836119f4565b9250828210156121405761213f611dc7565b5b828203905092915050565b7f43616e206e6f7420776974686472617720656e6f75676820746f6b656e732e00600082015250565b6000612181601f83611c7c565b915061218c8261214b565b602082019050919050565b600060208201905081810360008301526121b081612174565b9050919050565b6121c081611b63565b82525050565b60006080820190506121db60008301876119fe565b6121e860208301866121b7565b6121f560408301856119fe565b61220260608301846119fe565b95945050505050565b7f4e487b7100000000000000000000000000000000000000000000000000000000600052600160045260246000fd5b6000612245826119f4565b9150612250836119f4565b9250826122605761225f611d98565b5b828206905092915050565b600061227682611a0d565b915061228183611a0d565b92508282101561229457612293611dc7565b5b828203905092915050565b600081519050919050565b600081905092915050565b60005b838110156122d35780820151818401526020810190506122b8565b838111156122e2576000848401525b50505050565b60006122f38261229f565b6122fd81856122aa565b935061230d8185602086016122b5565b80840191505092915050565b600061232582846122e8565b915081905092915050565b7f556e697377617056323a205452414e534645525f4641494c4544000000000000600082015250565b6000612366601a83611c7c565b915061237182612330565b602082019050919050565b6000602082019050818103600083015261239581612359565b905091905056fea26469706673582212206054bc8af8634dcc50c5510f4fba2fbb122d04f35c60acfcac168359770dc0f664736f6c634300080a0033",
  "immutableReferences": {},
  "source": "// SPDX-License-Identifier: MIT\r\npragma solidity ^0.8.0;\r\nimport './interface/ERC20.sol';\r\nimport './Math.sol';\r\nimport './SafeMath.sol';\r\n\r\ncontract TokenPool{\r\n    using SafeMath  for uint;\r\n    address token1;\r\n    address token2;\r\n    address tokenLP;\r\n    ERC20 TokenA;\r\n    ERC20 TokenB;\r\n    ERC20 TokenLP;\r\n    //k = x * y\r\n    uint public x;\r\n    uint public y;\r\n    constructor(address _token1,address _token2,address _TokenLP){\r\n        TokenA = ERC20(_token1);\r\n        TokenB = ERC20(_token2);\r\n        TokenLP = ERC20(_TokenLP);\r\n    }\r\n\r\n    uint public constant MINIMUM_LIQUIDITY = 10**3;\r\n    bytes4 private constant SELECTOR = bytes4(keccak256(bytes('transfer(address,uint256)')));\r\n    uint private reserve0;           \r\n    uint private reserve1;           \r\n    uint32  private blockTimestampLast; \r\n\r\n    uint public price0CumulativeLast;   \r\n    uint public price1CumulativeLast;\r\n    \r\n    function getReserves() public view returns (uint _reserve0, uint _reserve1, uint32 _blockTimestampLast) {\r\n        _reserve0 = reserve0;\r\n        _reserve1 = reserve1;\r\n        // \r\n        _blockTimestampLast = blockTimestampLast;\r\n    }\r\n\r\n     function _safeTransfer(address token, address to, uint value) private {\r\n        // transfertokenvaluecointo\r\n        (bool success, bytes memory data) = token.call(abi.encodeWithSelector(SELECTOR, to, value));\r\n        // \r\n        require(success && (data.length == 0 || abi.decode(data, (bool))), 'UniswapV2: TRANSFER_FAILED');\r\n    }\r\n\r\n    event Mint(address indexed sender, uint amount0, uint amount1);\r\n    event Burn(address indexed sender, uint amount0, uint amount1, address indexed to);\r\n    event Swap(address indexed sender,uint amountIn,bool tokenType,uint minimumOut,uint amountOut,address indexed to);\r\n    event Sync(uint reserve0, uint reserve1);\r\n\r\n    function _update(uint balance0, uint balance1, uint _reserve0, uint _reserve1) private {\r\n        // \r\n        uint32 blockTimestamp = uint32(block.timestamp % 2**32);\r\n        uint32 timeElapsed = blockTimestamp - blockTimestampLast; // overflow is desired\r\n\r\n        // 25611211232\r\n        if (timeElapsed > 0 && _reserve0 != 0 && _reserve1 != 0) {\r\n            // * never overflows, and + overflow is desired\r\n            price0CumulativeLast += _reserve0 * timeElapsed;\r\n            price1CumulativeLast += _reserve1 * timeElapsed;\r\n        }\r\n        // reserve\r\n        reserve0 = uint112(balance0);\r\n        reserve1 = uint112(balance1);\r\n        blockTimestampLast = blockTimestamp;\r\n        emit Sync(reserve0, reserve1);\r\n    }\r\n\r\n    function mint(address to) external returns (uint liquidity) {\r\n        (uint _reserve0, uint _reserve1,) = getReserves(); // gas savings\r\n        // token\r\n        uint balance0 = TokenA.allowance(msg.sender,address(this));\r\n        uint balance1 = TokenB.allowance(msg.sender,address(this));\r\n        // balance\r\n        uint amount0 = balance0.sub(_reserve0);\r\n        uint amount1 = balance1.sub(_reserve1);\r\n        require(amount0 > 0 && amount1 >0,\"You need to put both tokens in the pool.\");\r\n        TokenA.transferFrom(msg.sender,address(this),balance0);\r\n        TokenB.transferFrom(msg.sender,address(this),balance0);\r\n        // \r\n        // gas  totalSupply  _mintFee \r\n        // totalSupply  pair \r\n        uint _totalSupply = TokenLP.totalSupply(); // gas savings, must be defined here since totalSupply can update in _mintFee\r\n        if (_totalSupply == 0) {\r\n            // kMINIMUM_LIQUIDITYsubliquidityuint\r\n            liquidity = Math.sqrt(amount0.mul(amount1)).sub(MINIMUM_LIQUIDITY);\r\n            //xy  k\r\n            x = amount0;\r\n            y = amount1;\r\n        } else {\r\n            // token\r\n            // \r\n            //_totalSupplyLP token,  *LP token  LP token burntokenA  LP tokenLP token * A  B\r\n            liquidity = Math.min(amount0.mul(_totalSupply) / _reserve0, amount1.mul(_totalSupply) / _reserve1);\r\n        }\r\n        require(liquidity > 0, 'UniswapV2: INSUFFICIENT_LIQUIDITY_MINTED');\r\n        // totokentotalsupply\r\n        // topairtotalSupply\r\n        TokenLP._mint(to, liquidity);\r\n        // \r\n        _update(balance0, balance1, _reserve0, _reserve1);\r\n        emit Mint(msg.sender, amount0, amount1);\r\n    }\r\n\r\n    function burn(address to) external returns (uint amount0, uint amount1) {\r\n        (uint _reserve0, uint _reserve1,) = getReserves(); // gas savings\r\n        uint balance0 = TokenA.balanceOf(address(this));\r\n        uint balance1 = TokenB.balanceOf(address(this));\r\n        uint liquidity = TokenLP.balanceOf(msg.sender);\r\n\r\n        uint _totalSupply = TokenLP.totalSupply(); // gas savings, must be defined here since totalSupply can update in _mintFee\r\n        //  amount0/1\r\n        amount0 = liquidity.mul(balance0) / _totalSupply; // using balances ensures pro-rata distribution\r\n        amount1 = liquidity.mul(balance1) / _totalSupply; // using balances ensures pro-rata distribution\r\n        require(amount0 > 0 && amount1 > 0, 'UniswapV2: INSUFFICIENT_LIQUIDITY_BURNED');\r\n        TokenLP._burn(address(this), liquidity);\r\n        // _token0/1  to  amount0/1\r\n        _safeTransfer(token1, to, amount0);\r\n        _safeTransfer(token2, to, amount1);\r\n        // balance\r\n        balance0 = TokenA.balanceOf(address(this));\r\n        balance1 = TokenB.balanceOf(address(this));\r\n        //  reserve0, reserve1  \r\n        _update(balance0, balance1, _reserve0, _reserve1);\r\n        emit Burn(msg.sender, amount0, amount1, to);\r\n    }\r\n\r\n    function swap(uint amountIn,bool tokenType,uint minimumOut,address to) external {   //0 is TokenA,1 is Token B\r\n        require(amountIn > 0 , \"You need to pay tokens.\");\r\n        require(tokenType == false && TokenA.allowance(msg.sender,address(this)) >= amountIn || tokenType == true && TokenB.allowance(msg.sender,address(this)) >= amountIn);\r\n        (uint _reserve0, uint _reserve1,) = getReserves(); // gas savings\r\n        require(tokenType == false && _reserve0 > minimumOut || tokenType == true && _reserve1 > minimumOut,\"Do not have enough tokens.\");\r\n        uint amountOut;\r\n        uint balance0 = _reserve0;\r\n        uint balance1 = _reserve1;\r\n        if(tokenType == false){\r\n            amountOut = _reserve1 - x*y/(_reserve0 + amountIn);\r\n            require(amountOut>minimumOut,\"Can not withdraw enough tokens.\");\r\n            TokenA.transferFrom(msg.sender,address(this),amountIn);\r\n            TokenB.transfer(to,amountOut);\r\n        }else{\r\n            amountOut = _reserve0 - x*y/(_reserve1 + amountIn);\r\n            require(amountOut>minimumOut,\"Can not withdraw enough tokens.\");\r\n            TokenB.transferFrom(msg.sender,address(this),amountIn);\r\n            TokenA.transfer(to,amountOut);\r\n        }\r\n        \r\n        balance0 = TokenA.balanceOf(address(this));\r\n        balance1 = TokenB.balanceOf(address(this));\r\n    \r\n        // \r\n        _update(balance0, balance1, _reserve0, _reserve1);\r\n        emit Swap(msg.sender, amountIn, tokenType, minimumOut, amountOut, to);\r\n    }\r\n}\r\n",
  "sourcePath": "C:\\Users\\10201\\Desktop\\MySwap\\contracts\\Pool.sol",
  "compiler": {
    "name": "solc",
    "version": "0.8.10+commit.fc410830.Emscripten.clang"
  },
  "schemaVersion": "3.4.3",
  "updatedAt": "2023-03-22T02:43:00.620Z",
  "devdoc": {
    "kind": "dev",
    "methods": {},
    "version": 1
  },
  "userdoc": {
    "kind": "user",
    "methods": {},
    "version": 1
  }
}