{
  "contractName": "TokenLP",
  "abi": [
    {
      "inputs": [],
      "stateMutability": "nonpayable",
      "type": "constructor"
    },
    {
      "anonymous": false,
      "inputs": [
        {
          "indexed": true,
          "internalType": "address",
          "name": "_owner",
          "type": "address"
        },
        {
          "indexed": true,
          "internalType": "address",
          "name": "_spender",
          "type": "address"
        },
        {
          "indexed": false,
          "internalType": "uint256",
          "name": "_value",
          "type": "uint256"
        }
      ],
      "name": "Approval",
      "type": "event"
    },
    {
      "anonymous": false,
      "inputs": [
        {
          "indexed": true,
          "internalType": "address",
          "name": "_from",
          "type": "address"
        },
        {
          "indexed": true,
          "internalType": "address",
          "name": "_to",
          "type": "address"
        },
        {
          "indexed": false,
          "internalType": "uint256",
          "name": "_value",
          "type": "uint256"
        }
      ],
      "name": "Transfer",
      "type": "event"
    },
    {
      "inputs": [
        {
          "internalType": "address",
          "name": "from",
          "type": "address"
        },
        {
          "internalType": "uint256",
          "name": "value",
          "type": "uint256"
        }
      ],
      "name": "_burn",
      "outputs": [],
      "stateMutability": "nonpayable",
      "type": "function"
    },
    {
      "inputs": [
        {
          "internalType": "address",
          "name": "to",
          "type": "address"
        },
        {
          "internalType": "uint256",
          "name": "value",
          "type": "uint256"
        }
      ],
      "name": "_mint",
      "outputs": [],
      "stateMutability": "nonpayable",
      "type": "function"
    },
    {
      "inputs": [
        {
          "internalType": "address",
          "name": "_owner",
          "type": "address"
        },
        {
          "internalType": "address",
          "name": "_spender",
          "type": "address"
        }
      ],
      "name": "allowance",
      "outputs": [
        {
          "internalType": "uint256",
          "name": "",
          "type": "uint256"
        }
      ],
      "stateMutability": "view",
      "type": "function"
    },
    {
      "inputs": [
        {
          "internalType": "address",
          "name": "_spender",
          "type": "address"
        },
        {
          "internalType": "uint256",
          "name": "_value",
          "type": "uint256"
        }
      ],
      "name": "approve",
      "outputs": [
        {
          "internalType": "bool",
          "name": "",
          "type": "bool"
        }
      ],
      "stateMutability": "nonpayable",
      "type": "function"
    },
    {
      "inputs": [
        {
          "internalType": "address",
          "name": "_owner",
          "type": "address"
        }
      ],
      "name": "balanceOf",
      "outputs": [
        {
          "internalType": "uint256",
          "name": "",
          "type": "uint256"
        }
      ],
      "stateMutability": "view",
      "type": "function"
    },
    {
      "inputs": [],
      "name": "decimals",
      "outputs": [
        {
          "internalType": "uint8",
          "name": "",
          "type": "uint8"
        }
      ],
      "stateMutability": "pure",
      "type": "function"
    },
    {
      "inputs": [],
      "name": "name",
      "outputs": [
        {
          "internalType": "string",
          "name": "",
          "type": "string"
        }
      ],
      "stateMutability": "view",
      "type": "function"
    },
    {
      "inputs": [],
      "name": "symbol",
      "outputs": [
        {
          "internalType": "string",
          "name": "",
          "type": "string"
        }
      ],
      "stateMutability": "view",
      "type": "function"
    },
    {
      "inputs": [],
      "name": "totalSupply",
      "outputs": [
        {
          "internalType": "uint256",
          "name": "",
          "type": "uint256"
        }
      ],
      "stateMutability": "view",
      "type": "function"
    },
    {
      "inputs": [
        {
          "internalType": "address",
          "name": "_to",
          "type": "address"
        },
        {
          "internalType": "uint256",
          "name": "_value",
          "type": "uint256"
        }
      ],
      "name": "transfer",
      "outputs": [
        {
          "internalType": "bool",
          "name": "",
          "type": "bool"
        }
      ],
      "stateMutability": "nonpayable",
      "type": "function"
    },
    {
      "inputs": [
        {
          "internalType": "address",
          "name": "_from",
          "type": "address"
        },
        {
          "internalType": "address",
          "name": "_to",
          "type": "address"
        },
        {
          "internalType": "uint256",
          "name": "_value",
          "type": "uint256"
        }
      ],
      "name": "transferFrom",
      "outputs": [
        {
          "internalType": "bool",
          "name": "",
          "type": "bool"
        }
      ],
      "stateMutability": "nonpayable",
      "type": "function"
    }
  ],
  "bytecode": "0x608060405260006005553480156200001657600080fd5b506040518060400160405280600781526020017f546f6b656e4c50000000000000000000000000000000000000000000000000008152506003908051906020019062000064929190620000c2565b506040518060400160405280600281526020017f4c5000000000000000000000000000000000000000000000000000000000000081525060049080519060200190620000b2929190620000c2565b50600554600281905550620001d7565b828054620000d090620001a1565b90600052602060002090601f016020900481019282620000f4576000855562000140565b82601f106200010f57805160ff191683800117855562000140565b8280016001018555821562000140579182015b828111156200013f57825182559160200191906001019062000122565b5b5090506200014f919062000153565b5090565b5b808211156200016e57600081600090555060010162000154565b5090565b7f4e487b7100000000000000000000000000000000000000000000000000000000600052602260045260246000fd5b60006002820490506001821680620001ba57607f821691505b60208210811415620001d157620001d062000172565b5b50919050565b61147e80620001e76000396000f3fe608060405234801561001057600080fd5b50600436106100a95760003560e01c80634e6ec247116100715780634e6ec247146101685780636161eb181461018457806370a08231146101a057806395d89b41146101d0578063a9059cbb146101ee578063dd62ed3e1461021e576100a9565b806306fdde03146100ae578063095ea7b3146100cc57806318160ddd146100fc57806323b872dd1461011a578063313ce5671461014a575b600080fd5b6100b661024e565b6040516100c39190610cd5565b60405180910390f35b6100e660048036038101906100e19190610d90565b6102e0565b6040516100f39190610deb565b60405180910390f35b61010461031b565b6040516101119190610e15565b60405180910390f35b610134600480360381019061012f9190610e30565b610325565b6040516101419190610deb565b60405180910390f35b61015261040a565b60405161015f9190610e9f565b60405180910390f35b610182600480360381019061017d9190610d90565b610413565b005b61019e60048036038101906101999190610d90565b61052b565b005b6101ba60048036038101906101b59190610eba565b610643565b6040516101c79190610e15565b60405180910390f35b6101d861068b565b6040516101e59190610cd5565b60405180910390f35b61020860048036038101906102039190610d90565b61071d565b6040516102159190610deb565b60405180910390f35b61023860048036038101906102339190610ee7565b610734565b6040516102459190610e15565b60405180910390f35b60606003805461025d90610f56565b80601f016020809104026020016040519081016040528092919081815260200182805461028990610f56565b80156102d65780601f106102ab576101008083540402835291602001916102d6565b820191906000526020600020905b8154815290600101906020018083116102b957829003601f168201915b5050505050905090565b6000808214806102f9575060006102f73385610734565b145b61030657610305610f88565b5b6103113384846107bb565b6001905092915050565b6000600254905090565b60008273ffffffffffffffffffffffffffffffffffffffff163373ffffffffffffffffffffffffffffffffffffffff1614610395576040517f08c379a000000000000000000000000000000000000000000000000000000000815260040161038c90611029565b60405180910390fd5b60006103a18533610734565b9050828110156103e6576040517f08c379a00000000000000000000000000000000000000000000000000000000081526004016103dd90611095565b60405180910390fd5b6103f385858584036107bb565b6103fe853385610986565b60019150509392505050565b60006012905090565b61042881600254610be990919063ffffffff16565b60028190555061047f816000808573ffffffffffffffffffffffffffffffffffffffff1673ffffffffffffffffffffffffffffffffffffffff16815260200190815260200160002054610be990919063ffffffff16565b6000808473ffffffffffffffffffffffffffffffffffffffff1673ffffffffffffffffffffffffffffffffffffffff168152602001908152602001600020819055508173ffffffffffffffffffffffffffffffffffffffff16600073ffffffffffffffffffffffffffffffffffffffff167fddf252ad1be2c89b69c2b068fc378daa952ba7f163c4a11628f55a4df523b3ef8360405161051f9190610e15565b60405180910390a35050565b61057c816000808573ffffffffffffffffffffffffffffffffffffffff1673ffffffffffffffffffffffffffffffffffffffff16815260200190815260200160002054610c1590919063ffffffff16565b6000808473ffffffffffffffffffffffffffffffffffffffff1673ffffffffffffffffffffffffffffffffffffffff168152602001908152602001600020819055506105d381600254610c1590919063ffffffff16565b600281905550600073ffffffffffffffffffffffffffffffffffffffff168273ffffffffffffffffffffffffffffffffffffffff167fddf252ad1be2c89b69c2b068fc378daa952ba7f163c4a11628f55a4df523b3ef836040516106379190610e15565b60405180910390a35050565b60008060008373ffffffffffffffffffffffffffffffffffffffff1673ffffffffffffffffffffffffffffffffffffffff168152602001908152602001600020549050919050565b60606004805461069a90610f56565b80601f01602080910402602001604051908101604052809291908181526020018280546106c690610f56565b80156107135780601f106106e857610100808354040283529160200191610713565b820191906000526020600020905b8154815290600101906020018083116106f657829003601f168201915b5050505050905090565b600061072a338484610986565b6001905092915050565b6000600160008473ffffffffffffffffffffffffffffffffffffffff1673ffffffffffffffffffffffffffffffffffffffff16815260200190815260200160002060008373ffffffffffffffffffffffffffffffffffffffff1673ffffffffffffffffffffffffffffffffffffffff16815260200190815260200160002054905092915050565b600073ffffffffffffffffffffffffffffffffffffffff168373ffffffffffffffffffffffffffffffffffffffff16141561082b576040517f08c379a000000000000000000000000000000000000000000000000000000000815260040161082290611127565b60405180910390fd5b600073ffffffffffffffffffffffffffffffffffffffff168273ffffffffffffffffffffffffffffffffffffffff16141561089b576040517f08c379a0000000000000000000000000000000000000000000000000000000008152600401610892906111b9565b60405180910390fd5b80600160008573ffffffffffffffffffffffffffffffffffffffff1673ffffffffffffffffffffffffffffffffffffffff16815260200190815260200160002060008473ffffffffffffffffffffffffffffffffffffffff1673ffffffffffffffffffffffffffffffffffffffff168152602001908152602001600020819055508173ffffffffffffffffffffffffffffffffffffffff168373ffffffffffffffffffffffffffffffffffffffff167f8c5be1e5ebec7d5bd14f71427d1e84f3dd0314c0f7b2291e5b200ac8c7c3b925836040516109799190610e15565b60405180910390a3505050565b600073ffffffffffffffffffffffffffffffffffffffff168373ffffffffffffffffffffffffffffffffffffffff1614156109f6576040517f08c379a00000000000000000000000000000000000000000000000000000000081526004016109ed9061124b565b60405180910390fd5b600073ffffffffffffffffffffffffffffffffffffffff168273ffffffffffffffffffffffffffffffffffffffff161415610a66576040517f08c379a0000000000000000000000000000000000000000000000000000000008152600401610a5d906112dd565b60405180910390fd5b806000808573ffffffffffffffffffffffffffffffffffffffff1673ffffffffffffffffffffffffffffffffffffffff168152602001908152602001600020541015610ae7576040517f08c379a0000000000000000000000000000000000000000000000000000000008152600401610ade9061136f565b60405180910390fd5b806000808573ffffffffffffffffffffffffffffffffffffffff1673ffffffffffffffffffffffffffffffffffffffff16815260200190815260200160002060008282540392505081905550806000808473ffffffffffffffffffffffffffffffffffffffff1673ffffffffffffffffffffffffffffffffffffffff168152602001908152602001600020600082825401925050819055508173ffffffffffffffffffffffffffffffffffffffff168373ffffffffffffffffffffffffffffffffffffffff167fddf252ad1be2c89b69c2b068fc378daa952ba7f163c4a11628f55a4df523b3ef83604051610bdc9190610e15565b60405180910390a3505050565b6000808284610bf891906113be565b905083811015610c0b57610c0a610f88565b5b8091505092915050565b600082821115610c2857610c27610f88565b5b8183610c349190611414565b905092915050565b600081519050919050565b600082825260208201905092915050565b60005b83811015610c76578082015181840152602081019050610c5b565b83811115610c85576000848401525b50505050565b6000601f19601f8301169050919050565b6000610ca782610c3c565b610cb18185610c47565b9350610cc1818560208601610c58565b610cca81610c8b565b840191505092915050565b60006020820190508181036000830152610cef8184610c9c565b905092915050565b600080fd5b600073ffffffffffffffffffffffffffffffffffffffff82169050919050565b6000610d2782610cfc565b9050919050565b610d3781610d1c565b8114610d4257600080fd5b50565b600081359050610d5481610d2e565b92915050565b6000819050919050565b610d6d81610d5a565b8114610d7857600080fd5b50565b600081359050610d8a81610d64565b92915050565b60008060408385031215610da757610da6610cf7565b5b6000610db585828601610d45565b9250506020610dc685828601610d7b565b9150509250929050565b60008115159050919050565b610de581610dd0565b82525050565b6000602082019050610e006000830184610ddc565b92915050565b610e0f81610d5a565b82525050565b6000602082019050610e2a6000830184610e06565b92915050565b600080600060608486031215610e4957610e48610cf7565b5b6000610e5786828701610d45565b9350506020610e6886828701610d45565b9250506040610e7986828701610d7b565b9150509250925092565b600060ff82169050919050565b610e9981610e83565b82525050565b6000602082019050610eb46000830184610e90565b92915050565b600060208284031215610ed057610ecf610cf7565b5b6000610ede84828501610d45565b91505092915050565b60008060408385031215610efe57610efd610cf7565b5b6000610f0c85828601610d45565b9250506020610f1d85828601610d45565b9150509250929050565b7f4e487b7100000000000000000000000000000000000000000000000000000000600052602260045260246000fd5b60006002820490506001821680610f6e57607f821691505b60208210811415610f8257610f81610f27565b5b50919050565b7f4e487b7100000000000000000000000000000000000000000000000000000000600052600160045260246000fd5b7f45524332303a207472616e736665727320746f20616e6f74686572206164647260008201527f657373207468616e2063616c6c6572206e6f7420616c6c6f7765640000000000602082015250565b6000611013603b83610c47565b915061101e82610fb7565b604082019050919050565b6000602082019050818103600083015261104281611006565b9050919050565b7f45524332303a20696e73756666696369656e7420616c6c6f77616e6365000000600082015250565b600061107f601d83610c47565b915061108a82611049565b602082019050919050565b600060208201905081810360008301526110ae81611072565b9050919050565b7f45524332303a20617070726f76652066726f6d20746865207a65726f2061646460008201527f7265737300000000000000000000000000000000000000000000000000000000602082015250565b6000611111602483610c47565b915061111c826110b5565b604082019050919050565b6000602082019050818103600083015261114081611104565b9050919050565b7f45524332303a20617070726f766520746f20746865207a65726f20616464726560008201527f7373000000000000000000000000000000000000000000000000000000000000602082015250565b60006111a3602283610c47565b91506111ae82611147565b604082019050919050565b600060208201905081810360008301526111d281611196565b9050919050565b7f45524332303a207472616e736665722066726f6d20746865207a65726f20616460008201527f6472657373000000000000000000000000000000000000000000000000000000602082015250565b6000611235602583610c47565b9150611240826111d9565b604082019050919050565b6000602082019050818103600083015261126481611228565b9050919050565b7f45524332303a207472616e7366657220746f20746865207a65726f206164647260008201527f6573730000000000000000000000000000000000000000000000000000000000602082015250565b60006112c7602383610c47565b91506112d28261126b565b604082019050919050565b600060208201905081810360008301526112f6816112ba565b9050919050565b7f45524332303a207472616e7366657220616d6f756e742065786365656473206260008201527f616c616e63650000000000000000000000000000000000000000000000000000602082015250565b6000611359602683610c47565b9150611364826112fd565b604082019050919050565b600060208201905081810360008301526113888161134c565b9050919050565b7f4e487b7100000000000000000000000000000000000000000000000000000000600052601160045260246000fd5b60006113c982610d5a565b91506113d483610d5a565b9250827fffffffffffffffffffffffffffffffffffffffffffffffffffffffffffffffff038211156114095761140861138f565b5b828201905092915050565b600061141f82610d5a565b915061142a83610d5a565b92508282101561143d5761143c61138f565b5b82820390509291505056fea2646970667358221220a00d047ecf3613684f0a748155e87b53e69577d2c37f0b684a0b6d240dc6b88764736f6c634300080a0033",
  "immutableReferences": {},
  "source": "// SPDX-License-Identifier: MIT\r\npragma solidity ^0.8.0;\r\nimport \"./LP.sol\";\r\n\r\ncontract TokenLP is LP {\r\n    string private constant NAME = \"TokenLP\";\r\n    string private constant SYMBOL = \"LP\";\r\n    uint256 private INITIAL_SUPPLY = 0;\r\n    constructor() {\r\n        _name = NAME;\r\n        _symbol = SYMBOL;\r\n        _totalSupply = INITIAL_SUPPLY;\r\n    }\r\n}",
  "sourcePath": "C:\\Users\\10201\\Desktop\\MySwap\\contracts\\TokenLP.sol",
  "compiler": {
    "name": "solc",
    "version": "0.8.10+commit.fc410830.Emscripten.clang"
  },
  "schemaVersion": "3.4.3",
  "updatedAt": "2023-04-07T13:27:02.190Z",
  "devdoc": {
    "kind": "dev",
    "methods": {},
    "version": 1
  },
  "userdoc": {
    "kind": "user",
    "methods": {},
    "version": 1
  }
}